{
  "contractName": "Fund",
  "abi": [
    {
      "constant": true,
      "inputs": [],
      "name": "totalDonated",
      "outputs": [
        {
          "name": "",
          "type": "uint256"
        }
      ],
      "payable": false,
      "stateMutability": "view",
      "type": "function"
    },
    {
      "constant": true,
      "inputs": [],
      "name": "active",
      "outputs": [
        {
          "name": "",
          "type": "bool"
        }
      ],
      "payable": false,
      "stateMutability": "view",
      "type": "function"
    },
    {
      "constant": true,
      "inputs": [],
      "name": "totalDonors",
      "outputs": [
        {
          "name": "",
          "type": "uint256"
        }
      ],
      "payable": false,
      "stateMutability": "view",
      "type": "function"
    },
    {
      "constant": false,
      "inputs": [],
      "name": "unpause",
      "outputs": [],
      "payable": false,
      "stateMutability": "nonpayable",
      "type": "function"
    },
    {
      "constant": true,
      "inputs": [
        {
          "name": "",
          "type": "address"
        }
      ],
      "name": "claimedFunds",
      "outputs": [
        {
          "name": "",
          "type": "bool"
        }
      ],
      "payable": false,
      "stateMutability": "view",
      "type": "function"
    },
    {
      "constant": true,
      "inputs": [],
      "name": "title",
      "outputs": [
        {
          "name": "",
          "type": "string"
        }
      ],
      "payable": false,
      "stateMutability": "view",
      "type": "function"
    },
    {
      "constant": true,
      "inputs": [],
      "name": "minNumberDonators",
      "outputs": [
        {
          "name": "",
          "type": "uint256"
        }
      ],
      "payable": false,
      "stateMutability": "view",
      "type": "function"
    },
    {
      "constant": true,
      "inputs": [],
      "name": "paused",
      "outputs": [
        {
          "name": "",
          "type": "bool"
        }
      ],
      "payable": false,
      "stateMutability": "view",
      "type": "function"
    },
    {
      "constant": false,
      "inputs": [],
      "name": "renounceOwnership",
      "outputs": [],
      "payable": false,
      "stateMutability": "nonpayable",
      "type": "function"
    },
    {
      "constant": true,
      "inputs": [],
      "name": "description",
      "outputs": [
        {
          "name": "",
          "type": "string"
        }
      ],
      "payable": false,
      "stateMutability": "view",
      "type": "function"
    },
    {
      "constant": true,
      "inputs": [],
      "name": "acceptingDonations",
      "outputs": [
        {
          "name": "",
          "type": "bool"
        }
      ],
      "payable": false,
      "stateMutability": "view",
      "type": "function"
    },
    {
      "constant": false,
      "inputs": [],
      "name": "pause",
      "outputs": [],
      "payable": false,
      "stateMutability": "nonpayable",
      "type": "function"
    },
    {
      "constant": true,
      "inputs": [],
      "name": "owner",
      "outputs": [
        {
          "name": "",
          "type": "address"
        }
      ],
      "payable": false,
      "stateMutability": "view",
      "type": "function"
    },
    {
      "constant": true,
      "inputs": [],
      "name": "targetAmount",
      "outputs": [
        {
          "name": "",
          "type": "uint256"
        }
      ],
      "payable": false,
      "stateMutability": "view",
      "type": "function"
    },
    {
      "constant": true,
      "inputs": [],
      "name": "currentMilestoneIndex",
      "outputs": [
        {
          "name": "",
          "type": "uint256"
        }
      ],
      "payable": false,
      "stateMutability": "view",
      "type": "function"
    },
    {
      "constant": true,
      "inputs": [],
      "name": "fundInitialized",
      "outputs": [
        {
          "name": "",
          "type": "bool"
        }
      ],
      "payable": false,
      "stateMutability": "view",
      "type": "function"
    },
    {
      "constant": true,
      "inputs": [
        {
          "name": "",
          "type": "uint256"
        }
      ],
      "name": "milestones",
      "outputs": [
        {
          "name": "name",
          "type": "string"
        },
        {
          "name": "description",
          "type": "string"
        },
        {
          "name": "passingVotes",
          "type": "uint256"
        },
        {
          "name": "failingVotes",
          "type": "uint256"
        },
        {
          "name": "totalVoted",
          "type": "uint256"
        },
        {
          "name": "acceptingVotes",
          "type": "bool"
        }
      ],
      "payable": false,
      "stateMutability": "view",
      "type": "function"
    },
    {
      "constant": false,
      "inputs": [
        {
          "name": "_newOwner",
          "type": "address"
        }
      ],
      "name": "transferOwnership",
      "outputs": [],
      "payable": false,
      "stateMutability": "nonpayable",
      "type": "function"
    },
    {
      "constant": true,
      "inputs": [
        {
          "name": "",
          "type": "address"
        }
      ],
      "name": "donated",
      "outputs": [
        {
          "name": "",
          "type": "bool"
        }
      ],
      "payable": false,
      "stateMutability": "view",
      "type": "function"
    },
    {
      "constant": true,
      "inputs": [
        {
          "name": "",
          "type": "address"
        }
      ],
      "name": "amountDonated",
      "outputs": [
        {
          "name": "",
          "type": "uint256"
        }
      ],
      "payable": false,
      "stateMutability": "view",
      "type": "function"
    },
    {
      "inputs": [],
      "payable": false,
      "stateMutability": "nonpayable",
      "type": "constructor"
    },
    {
      "payable": true,
      "stateMutability": "payable",
      "type": "fallback"
    },
    {
      "anonymous": false,
      "inputs": [
        {
          "indexed": false,
          "name": "owner",
          "type": "address"
        },
        {
          "indexed": false,
          "name": "title",
          "type": "string"
        },
        {
          "indexed": false,
          "name": "description",
          "type": "string"
        },
        {
          "indexed": false,
          "name": "targetAmount",
          "type": "uint256"
        },
        {
          "indexed": false,
          "name": "minNumberDonators",
          "type": "uint256"
        }
      ],
      "name": "FundInitialized",
      "type": "event"
    },
    {
      "anonymous": false,
      "inputs": [
        {
          "indexed": false,
          "name": "name",
          "type": "string"
        },
        {
          "indexed": false,
          "name": "description",
          "type": "string"
        }
      ],
      "name": "MilestoneAdded",
      "type": "event"
    },
    {
      "anonymous": false,
      "inputs": [
        {
          "indexed": false,
          "name": "owner",
          "type": "address"
        },
        {
          "indexed": false,
          "name": "title",
          "type": "string"
        },
        {
          "indexed": false,
          "name": "description",
          "type": "string"
        }
      ],
      "name": "FundDeployed",
      "type": "event"
    },
    {
      "anonymous": false,
      "inputs": [
        {
          "indexed": false,
          "name": "fundAddress",
          "type": "address"
        },
        {
          "indexed": false,
          "name": "donorAddress",
          "type": "address"
        },
        {
          "indexed": false,
          "name": "amount",
          "type": "uint256"
        }
      ],
      "name": "DonationReceived",
      "type": "event"
    },
    {
      "anonymous": false,
      "inputs": [
        {
          "indexed": false,
          "name": "fundAddress",
          "type": "address"
        },
        {
          "indexed": false,
          "name": "title",
          "type": "string"
        },
        {
          "indexed": false,
          "name": "description",
          "type": "string"
        },
        {
          "indexed": false,
          "name": "totalDonated",
          "type": "uint256"
        }
      ],
      "name": "FundActivated",
      "type": "event"
    },
    {
      "anonymous": false,
      "inputs": [
        {
          "indexed": false,
          "name": "fundAddress",
          "type": "address"
        },
        {
          "indexed": false,
          "name": "voter",
          "type": "address"
        },
        {
          "indexed": false,
          "name": "approval",
          "type": "bool"
        },
        {
          "indexed": false,
          "name": "donationAmount",
          "type": "uint256"
        },
        {
          "indexed": false,
          "name": "passingVotes",
          "type": "uint256"
        },
        {
          "indexed": false,
          "name": "failingVotes",
          "type": "uint256"
        }
      ],
      "name": "VoteRecorded",
      "type": "event"
    },
    {
      "anonymous": false,
      "inputs": [
        {
          "indexed": false,
          "name": "fundAddress",
          "type": "address"
        },
        {
          "indexed": false,
          "name": "milestoneIndex",
          "type": "uint256"
        }
      ],
      "name": "NextMilestone",
      "type": "event"
    },
    {
      "anonymous": false,
      "inputs": [
        {
          "indexed": false,
          "name": "fundAddress",
          "type": "address"
        },
        {
          "indexed": false,
          "name": "retreiver",
          "type": "address"
        },
        {
          "indexed": false,
          "name": "refund",
          "type": "uint256"
        },
        {
          "indexed": false,
          "name": "currentbalance",
          "type": "uint256"
        },
        {
          "indexed": false,
          "name": "proportionDonated",
          "type": "uint256"
        }
      ],
      "name": "FundsClaimed",
      "type": "event"
    },
    {
      "anonymous": false,
      "inputs": [],
      "name": "Pause",
      "type": "event"
    },
    {
      "anonymous": false,
      "inputs": [],
      "name": "Unpause",
      "type": "event"
    },
    {
      "anonymous": false,
      "inputs": [
        {
          "indexed": true,
          "name": "previousOwner",
          "type": "address"
        }
      ],
      "name": "OwnershipRenounced",
      "type": "event"
    },
    {
      "anonymous": false,
      "inputs": [
        {
          "indexed": true,
          "name": "previousOwner",
          "type": "address"
        },
        {
          "indexed": true,
          "name": "newOwner",
          "type": "address"
        }
      ],
      "name": "OwnershipTransferred",
      "type": "event"
    },
    {
      "constant": false,
      "inputs": [
        {
          "name": "name",
          "type": "string"
        },
        {
          "name": "descrip",
          "type": "string"
        },
        {
          "name": "target",
          "type": "uint256"
        },
        {
          "name": "minDonors",
          "type": "uint256"
        }
      ],
      "name": "initializeFund",
      "outputs": [],
      "payable": false,
      "stateMutability": "nonpayable",
      "type": "function"
    },
    {
      "constant": true,
      "inputs": [],
      "name": "fundSummary",
      "outputs": [
        {
          "name": "",
          "type": "address"
        },
        {
          "name": "",
          "type": "uint256"
        },
        {
          "name": "",
          "type": "uint256"
        },
        {
          "name": "",
          "type": "uint256"
        },
        {
          "name": "",
          "type": "uint256"
        },
        {
          "name": "",
          "type": "bool"
        },
        {
          "name": "",
          "type": "bool"
        },
        {
          "name": "",
          "type": "string"
        },
        {
          "name": "",
          "type": "string"
        }
      ],
      "payable": false,
      "stateMutability": "view",
      "type": "function"
    },
    {
      "constant": false,
      "inputs": [
        {
          "name": "_name",
          "type": "string"
        },
        {
          "name": "_description",
          "type": "string"
        }
      ],
      "name": "addMilestone",
      "outputs": [],
      "payable": false,
      "stateMutability": "nonpayable",
      "type": "function"
    },
    {
      "constant": true,
      "inputs": [
        {
          "name": "index",
          "type": "uint256"
        }
      ],
      "name": "returnMilestone",
      "outputs": [
        {
          "name": "",
          "type": "string"
        },
        {
          "name": "",
          "type": "string"
        },
        {
          "name": "",
          "type": "uint256"
        },
        {
          "name": "",
          "type": "uint256"
        },
        {
          "name": "",
          "type": "uint256"
        },
        {
          "name": "",
          "type": "bool"
        }
      ],
      "payable": false,
      "stateMutability": "view",
      "type": "function"
    },
    {
      "constant": true,
      "inputs": [],
      "name": "getMilestonesCount",
      "outputs": [
        {
          "name": "",
          "type": "uint256"
        }
      ],
      "payable": false,
      "stateMutability": "view",
      "type": "function"
    },
    {
      "constant": false,
      "inputs": [],
      "name": "deployFund",
      "outputs": [],
      "payable": false,
      "stateMutability": "nonpayable",
      "type": "function"
    },
    {
      "constant": false,
      "inputs": [],
      "name": "makeDonation",
      "outputs": [],
      "payable": true,
      "stateMutability": "payable",
      "type": "function"
    },
    {
      "constant": false,
      "inputs": [],
      "name": "activateFund",
      "outputs": [],
      "payable": true,
      "stateMutability": "payable",
      "type": "function"
    },
    {
      "constant": false,
      "inputs": [
        {
          "name": "vote",
          "type": "bool"
        }
      ],
      "name": "recordVote",
      "outputs": [],
      "payable": false,
      "stateMutability": "nonpayable",
      "type": "function"
    },
    {
      "constant": false,
      "inputs": [],
      "name": "nextMilestone",
      "outputs": [],
      "payable": true,
      "stateMutability": "payable",
      "type": "function"
    },
    {
      "constant": false,
      "inputs": [],
      "name": "claimFunds",
      "outputs": [],
      "payable": true,
      "stateMutability": "payable",
      "type": "function"
    }
  ],
  "bytecode": "0x60806040526000805460a060020a60ff021916905534801561002057600080fd5b5060008054600160a060020a031990811633908117835560018054909216179055600781905560068190556008556124998061005d6000396000f3006080604052600436106101895763ffffffff7c0100000000000000000000000000000000000000000000000000000000600035041662b37044811461018e57806302fb0c5e146101b557806307aca9c2146101de5780630b49351c146101f557806325c302e41461020a5780633f4ba83a1461021f57806340ea0a9414610234578063468ce2301461023c5780634a79d50c1461025d57806359ba0980146102e75780635c975abb146102fc57806365f9775f14610311578063715018a6146103195780637284e4161461032e57806377e0a930146103435780637ee5fe27146103585780638456cb59146103f857806388c5a3f81461040d5780638da5cb5b14610523578063953b8fb814610554578063a0f97cf014610569578063abcc38f41461057e578063ac30777314610586578063d020e8031461058e578063d64ee238146105a3578063e1c58468146105bd578063e89e4ed614610654578063f2fde38b1461066c578063f42e69761461068d578063fb690dcc146107cb578063fbeb46ff146107ec575b600080fd5b34801561019a57600080fd5b506101a361080d565b60408051918252519081900360200190f35b3480156101c157600080fd5b506101ca610813565b604080519115158252519081900360200190f35b3480156101ea57600080fd5b506101f3610823565b005b34801561020157600080fd5b506101a36109d8565b34801561021657600080fd5b506101a36109df565b34801561022b57600080fd5b506101f36109e5565b6101f3610a5b565b34801561024857600080fd5b506101ca600160a060020a0360043516610b51565b34801561026957600080fd5b50610272610b66565b6040805160208082528351818301528351919283929083019185019080838360005b838110156102ac578181015183820152602001610294565b50505050905090810190601f1680156102d95780820380516001836020036101000a031916815260200191505b509250505060405180910390f35b3480156102f357600080fd5b506101a3610bf1565b34801561030857600080fd5b506101ca610bf7565b6101f3610c07565b34801561032557600080fd5b506101f3610f98565b34801561033a57600080fd5b50610272611004565b34801561034f57600080fd5b506101ca61105f565b34801561036457600080fd5b506040805160206004803580820135601f81018490048402850184019095528484526101f394369492936024939284019190819084018382808284375050604080516020601f89358b018035918201839004830284018301909452808352979a99988101979196509182019450925082915084018382808284375094975050843595505050602090920135915061106f9050565b34801561040457600080fd5b506101f3611240565b34801561041957600080fd5b506104256004356112bb565b60405180806020018060200187815260200186815260200185815260200184151515158152602001838103835289818151815260200191508051906020019080838360005b8381101561048257818101518382015260200161046a565b50505050905090810190601f1680156104af5780820380516001836020036101000a031916815260200191505b5083810382528851815288516020918201918a019080838360005b838110156104e25781810151838201526020016104ca565b50505050905090810190601f16801561050f5780820380516001836020036101000a031916815260200191505b509850505050505050505060405180910390f35b34801561052f57600080fd5b506105386114a9565b60408051600160a060020a039092168252519081900360200190f35b34801561056057600080fd5b506101a36114b8565b34801561057557600080fd5b506101a36114be565b6101f36114c4565b6101f3611748565b34801561059a57600080fd5b506101ca611aab565b3480156105af57600080fd5b506101f36004351515611abb565b3480156105c957600080fd5b506040805160206004803580820135601f81018490048402850184019095528484526101f394369492936024939284019190819084018382808284375050604080516020601f89358b018035918201839004830284018301909452808352979a999881019791965091820194509250829150840183828082843750949750611d349650505050505050565b34801561066057600080fd5b50610425600435611f7b565b34801561067857600080fd5b506101f3600160a060020a03600435166120e6565b34801561069957600080fd5b506106a2612109565b604051808a600160a060020a0316600160a060020a0316815260200189815260200188815260200187815260200186815260200185151515158152602001841515151581526020018060200180602001838103835285818151815260200191508051906020019080838360005b8381101561072757818101518382015260200161070f565b50505050905090810190601f1680156107545780820380516001836020036101000a031916815260200191505b50838103825284518152845160209182019186019080838360005b8381101561078757818101518382015260200161076f565b50505050905090810190601f1680156107b45780820380516001836020036101000a031916815260200191505b509b50505050505050505050505060405180910390f35b3480156107d757600080fd5b506101ca600160a060020a03600435166122a7565b3480156107f857600080fd5b506101a3600160a060020a03600435166122bc565b60075481565b60015460b060020a900460ff1681565b600054600160a060020a0316331461083a57600080fd5b60015460a860020a900460ff161561085157600080fd5b600c546001111561086157600080fd5b60015460a060020a900460ff16151561087957600080fd5b6001805475ff000000000000000000000000000000000000000000191660a860020a1781556040805133808252606060208301818152600280546000199781161561010002979097019096168690049184018290527f505b9045b44d999d60e150933bebe17e3b2d0ce5fcb19d90a22ea34edda570dd95929492936003939092908301906080840190869080156109515780601f1061092657610100808354040283529160200191610951565b820191906000526020600020905b81548152906001019060200180831161093457829003601f168201915b50508381038252845460026000196101006001841615020190911604808252602090910190859080156109c55780601f1061099a576101008083540402835291602001916109c5565b820191906000526020600020905b8154815290600101906020018083116109a857829003601f168201915b50509550505050505060405180910390a1565b600c545b90565b60065481565b600054600160a060020a031633146109fc57600080fd5b60005460a060020a900460ff161515610a1457600080fd5b6000805474ff0000000000000000000000000000000000000000191681556040517f7805862f689e2f13df9f062ff482ad3ad112aca9e0847911ed832e158c525b339190a1565b600154600160a060020a0316331415610a7357600080fd5b60005460a060020a900460ff1615610a8a57600080fd5b336000908152600a602052604090205460ff1615610aa757600080fd5b60015460a860020a900460ff161515610abf57600080fd5b610acb600754346122ce565b600755600680546001908101909155336000818152600a60209081526040808320805460ff1916861790556009825291829020349081905593548251600160a060020a03919091168152908101929092528181019290925290517f509fb5d764cf5e98b9f02a3d86350f8085cedb516140098d2d6fc2eb6256ac249181900360600190a1565b600b6020526000908152604090205460ff1681565b6002805460408051602060018416156101000260001901909316849004601f81018490048402820184019092528181529291830182828015610be95780601f10610bbe57610100808354040283529160200191610be9565b820191906000526020600020905b815481529060010190602001808311610bcc57829003601f168201915b505050505081565b60055481565b60005460a060020a900460ff1681565b6001546000908190819060a860020a900460ff1615610c2557600080fd5b600c5460085410610c3557600080fd5b600054600160a060020a03163314610c4c57600080fd5b610c5461239c565b600c600854815481101515610c6557fe5b600091825260209182902060408051600793909302909101805460026001821615610100026000190190911604601f8101859004909402830160e090810190925260c0830184815292939092849290918491840182828015610d085780601f10610cdd57610100808354040283529160200191610d08565b820191906000526020600020905b815481529060010190602001808311610ceb57829003601f168201915b50505050508152602001600182018054600181600116156101000203166002900480601f016020809104026020016040519081016040528092919081815260200182805460018160011615610100020316600290048015610daa5780601f10610d7f57610100808354040283529160200191610daa565b820191906000526020600020905b815481529060010190602001808311610d8d57829003601f168201915b50505091835250506002828101546020830152600383015460408301526004830154606083015260059092015460ff161515608090910152600654919250610df291906122e1565b60808201511015610e0257600080fd5b6060810151604082015111610e1657600080fd5b60005460a060020a900460ff1615610e2d57600080fd5b600c600854815481101515610e3e57fe5b600091825260209091206005600790920201015460ff169350831515610e6357600080fd5b60015460b060020a900460ff161515610e7b57600080fd5b600c54610e899060016122ce565b9250610e97600754846122e1565b600154604051919350600160a060020a03169083156108fc029084906000818181858888f19350505050158015610ed2573d6000803e3d6000fd5b506000600c600854815481101515610ee657fe5b60009182526020909120600790910201600501805460ff191691151591909117905560088054600190810191829055600c8054919290918110610f2557fe5b600091825260209182902060079190910201600501805460ff19169215159290921790915560015460085460408051600160a060020a0390931683529282015281517f54484603061911f00599f684098b06f93cd3d4359f303422c69e2a742d3cd40d929181900390910190a150505050565b600054600160a060020a03163314610faf57600080fd5b60008054604051600160a060020a03909116917ff8df31144d9c2f0f6b59d69b8b98abd5459d07f2742c4df920b25aae33c6482091a26000805473ffffffffffffffffffffffffffffffffffffffff19169055565b6003805460408051602060026001851615610100026000190190941693909304601f81018490048402820184019092528181529291830182828015610be95780601f10610bbe57610100808354040283529160200191610be9565b60015460a860020a900460ff1681565b600054600160a060020a0316331461108657600080fd5b60015460a060020a900460ff161561109d57600080fd5b83516110b09060029060208701906123d5565b5082516110c49060039060208601906123d5565b50600482905560058190556001805474ff0000000000000000000000000000000000000000191660a060020a1781556040805133808252606082018690526080820185905260a060208301818152600280549687161561010002600019019096168690049184018290527f09a7abc75945a696681435f19493996f1c7cc733b8b2fdfb894ba49364d2756e9592949293600393899389939183019060c0840190889080156111b35780601f10611188576101008083540402835291602001916111b3565b820191906000526020600020905b81548152906001019060200180831161119657829003601f168201915b50508381038252865460026000196101006001841615020190911604808252602090910190879080156112275780601f106111fc57610100808354040283529160200191611227565b820191906000526020600020905b81548152906001019060200180831161120a57829003601f168201915b505097505050505050505060405180910390a150505050565b600054600160a060020a0316331461125757600080fd5b60005460a060020a900460ff161561126e57600080fd5b6000805474ff0000000000000000000000000000000000000000191660a060020a1781556040517f6985a02210a168e66602d3235cb6db0e70f92b3ba4d376a33c0f3d9434bff6259190a1565b6060806000806000806112cc61239c565b60015460a060020a900460ff1615156112e457600080fd5b600c8054899081106112f257fe5b600091825260209182902060408051600793909302909101805460026001821615610100026000190190911604601f8101859004909402830160e090810190925260c08301848152929390928492909184918401828280156113955780601f1061136a57610100808354040283529160200191611395565b820191906000526020600020905b81548152906001019060200180831161137857829003601f168201915b50505050508152602001600182018054600181600116156101000203166002900480601f0160208091040260200160405190810160405280929190818152602001828054600181600116156101000203166002900480156114375780601f1061140c57610100808354040283529160200191611437565b820191906000526020600020905b81548152906001019060200180831161141a57829003601f168201915b505050918352505060028201546020808301919091526003830154604080840191909152600484015460608085019190915260059094015460ff16151560809384015284519185015190850151938501519285015160a090950151919d909c50929a5090985091965090945092505050565b600154600160a060020a031681565b60045481565b60085481565b600080548190600160a060020a031633146114de57600080fd5b60005460a060020a900460ff16156114f557600080fd5b60015460b060020a900460ff161561150c57600080fd5b60015460a860020a900460ff16151561152457600080fd5b600454600754101561153557600080fd5b600554600654101561154657600080fd5b600c546115549060016122ce565b9150611562600754836122e1565b600154604051919250600160a060020a03169082156108fc029083906000818181858888f1935050505015801561159d573d6000803e3d6000fd5b506001600c6008548154811015156115b157fe5b60009182526020918290206005600792830290910101805493151560ff19909416939093179092556001805476ffff000000000000000000000000000000000000000000191660b060020a17808255925460408051600160a060020a03909516808652606086018390526080948601858152600280549586161561010002600019019095168590049587018690527f9ccdf7d0261aacc9af5c9a292960b52d6398156b6292d6ef1919de5843573c629691956003949383019060a0840190879080156116be5780601f10611693576101008083540402835291602001916116be565b820191906000526020600020905b8154815290600101906020018083116116a157829003601f168201915b50508381038252855460026000196101006001841615020190911604808252602090910190869080156117325780601f1061170757610100808354040283529160200191611732565b820191906000526020600020905b81548152906001019060200180831161171557829003601f168201915b5050965050505050505060405180910390a15050565b60015460009081908190600160a060020a031633141561176757600080fd5b61176f61239c565b600c60085481548110151561178057fe5b600091825260209182902060408051600793909302909101805460026001821615610100026000190190911604601f8101859004909402830160e090810190925260c08301848152929390928492909184918401828280156118235780601f106117f857610100808354040283529160200191611823565b820191906000526020600020905b81548152906001019060200180831161180657829003601f168201915b50505050508152602001600182018054600181600116156101000203166002900480601f0160208091040260200160405190810160405280929190818152602001828054600181600116156101000203166002900480156118c55780601f1061189a576101008083540402835291602001916118c5565b820191906000526020600020905b8154815290600101906020018083116118a857829003601f168201915b50505091835250506002828101546020830152600383015460408301526004830154606083015260059092015460ff16151560809091015260065491925061190d91906122e1565b6080820151101561191d57600080fd5b606081015160408201511061193157600080fd5b60005460a060020a900460ff161561194857600080fd5b336000908152600a602052604090205460ff16151561196657600080fd5b336000908152600b602052604090205460ff161561198357600080fd5b3360009081526009602052604090205461199f906103e86122f6565b93506119ad846007546122e1565b60015460075460408051600160a060020a039093168352336020840152828101889052606083019190915260808201839052519194507fc7616df128bd6cb104237eba0659d52dd06074de4a0e80b3303ddf29096babe4919081900360a00190a1611a198330316122f6565b9150611a27826103e86122e1565b336000818152600b6020526040808220805460ff1916600117905551929450909184156108fc0291859190818181858888f19350505050158015611a6f573d6000803e3d6000fd5b506000600c600854815481101515611a8357fe5b60009182526020909120600790910201600501805460ff191691151591909117905550505050565b60015460a060020a900460ff1681565b60015460009081908190600160a060020a0316331415611ada57600080fd5b60015460a860020a900460ff1615611af157600080fd5b336000908152600a602052604090205460ff161515611b0f57600080fd5b600c600854815481101515611b2057fe5b600091825260208083203384526006600790930201919091019052604090205460ff1615611b4d57600080fd5b600c600854815481101515611b5e57fe5b600091825260209091206005600790920201015460ff161515611b8057600080fd5b60015460b060020a900460ff161515611b9857600080fd5b33600090815260096020526040902054600854600c8054929550918110611bbb57fe5b9060005260206000209060070201600201549150600c600854815481101515611be057fe5b90600052602060002090600702016003015490508315611c2f57611c0482846122ce565b600c600854815481101515611c1557fe5b906000526020600020906007020160020181905550611c60565b611c3981846122ce565b600c600854815481101515611c4a57fe5b9060005260206000209060070201600301819055505b600c600854815481101515611c7157fe5b6000918252602090912060046007909202010180546001908101909155600854600c80549091908110611ca057fe5b6000918252602080832033808552600793909302016006018152604092839020805460ff1916941515949094179093556001548251600160a060020a0390911681529283015285151582820152606082018590526080820184905260a08201839052517f065f549e4b4fbfd5eda47d409cfa7fb85438e4f230dc405bace9b5cd0d2e04a99160c0908290030190a150505050565b611d3c61239c565b600054600160a060020a03163314611d5357600080fd5b60015460a860020a900460ff1615611d6a57600080fd5b60015460a060020a900460ff161515611d8257600080fd5b60015460b060020a900460ff1615611d9957600080fd5b506040805160c08101825283815260208082018490526000928201839052606082018390526080820183905260a08201839052600c805460018101808355919094528251805193949193859360079093027fdf6966c971051c3d54ec59162606531493a51404a002842f56009d7e5cf4a8c70192611e1b9284929101906123d5565b506020828101518051611e3492600185019201906123d5565b5060408201518160020155606082015181600301556080820151816004015560a08201518160050160006101000a81548160ff0219169083151502179055505050507faa3394af2e59af9f550323dff5e3bb6955cc533473f446a1705b13a2710e6fbf8383604051808060200180602001838103835285818151815260200191508051906020019080838360005b83811015611eda578181015183820152602001611ec2565b50505050905090810190601f168015611f075780820380516001836020036101000a031916815260200191505b50838103825284518152845160209182019186019080838360005b83811015611f3a578181015183820152602001611f22565b50505050905090810190601f168015611f675780820380516001836020036101000a031916815260200191505b5094505050505060405180910390a1505050565b600c805482908110611f8957fe5b60009182526020918290206007919091020180546040805160026001841615610100026000190190931692909204601f8101859004850283018501909152808252919350918391908301828280156120225780601f10611ff757610100808354040283529160200191612022565b820191906000526020600020905b81548152906001019060200180831161200557829003601f168201915b505050505090806001018054600181600116156101000203166002900480601f0160208091040260200160405190810160405280929190818152602001828054600181600116156101000203166002900480156120c05780601f10612095576101008083540402835291602001916120c0565b820191906000526020600020905b8154815290600101906020018083116120a357829003601f168201915b505050506002830154600384015460048501546005909501549394919390925060ff1686565b600054600160a060020a031633146120fd57600080fd5b6121068161231f565b50565b6000806000806000806000606080600160149054906101000a900460ff16151561213257600080fd5b6001805460065460055460075460045460028054604080516020601f6000199b851615610100029b909b01909316849004998a01839004830281018301909152888152600160a060020a03881698969795969495939460ff60a860020a860481169560b060020a90041693926003929184918301828280156121f55780601f106121ca576101008083540402835291602001916121f5565b820191906000526020600020905b8154815290600101906020018083116121d857829003601f168201915b5050845460408051602060026001851615610100026000190190941693909304601f8101849004840282018401909252818152959750869450925084019050828280156122835780601f1061225857610100808354040283529160200191612283565b820191906000526020600020905b81548152906001019060200180831161226657829003601f168201915b50505050509050985098509850985098509850985098509850909192939495969798565b600a6020526000908152604090205460ff1681565b60096020526000908152604090205481565b818101828110156122db57fe5b92915050565b600081838115156122ee57fe5b049392505050565b6000821515612307575060006122db565b5081810281838281151561231757fe5b04146122db57fe5b600160a060020a038116151561233457600080fd5b60008054604051600160a060020a03808516939216917f8be0079c531659141344cd1fd0a4f28419497f9722a3daafe3b4186f6b6457e091a36000805473ffffffffffffffffffffffffffffffffffffffff1916600160a060020a0392909216919091179055565b60c06040519081016040528060608152602001606081526020016000815260200160008152602001600081526020016000151581525090565b828054600181600116156101000203166002900490600052602060002090601f016020900481019282601f1061241657805160ff1916838001178555612443565b82800160010185558215612443579182015b82811115612443578251825591602001919060010190612428565b5061244f929150612453565b5090565b6109dc91905b8082111561244f57600081556001016124595600a165627a7a72305820e93f9f2dd1fa4442b1b7ff051bd2832ca5d7db3f611e601a2a6adde726c090380029",
  "source": "pragma solidity ^0.4.24;\n\nimport '../client/node_modules/openzeppelin-solidity/contracts/ownership/Ownable.sol';\nimport \"../client/node_modules/openzeppelin-solidity/contracts/lifecycle/Pausable.sol\";\nimport \"../client/node_modules/openzeppelin-solidity/contracts/math/SafeMath.sol\";\n\n\t/**\n * @title Fund\n * @dev Charity app that administers a single fund\n */\n\ncontract Fund is Ownable, Pausable {\n\n\tstruct Milestones {\n\t\tstring name;\n\t\tstring description;\n\t\tuint passingVotes;\n\t\tuint failingVotes;\n\t\tuint totalVoted;\n\t\tbool acceptingVotes;\n\t\tmapping (address => bool) voted;\n\t}\n\n\taddress public owner;\n\tbool public fundInitialized;\n\tbool public acceptingDonations;\n\tbool public active;\n\tstring public title;\n\tstring public description;\n\tuint public targetAmount;\n\tuint public minNumberDonators;\n\tuint public totalDonors;\n\tuint public totalDonated;\n\tuint public currentMilestoneIndex;\n\tmapping (address => uint) public amountDonated;\n\tmapping (address => bool) public donated;\n\tmapping (address => bool) public claimedFunds;\n\tMilestones[] public milestones;\n\n\tevent FundInitialized(address owner, string title, string description, uint targetAmount, uint minNumberDonators);\n\tevent MilestoneAdded(string name, string description);\n\tevent FundDeployed(address owner, string title, string description);\n\tevent DonationReceived(address fundAddress, address donorAddress, uint amount);\n\tevent FundActivated(address fundAddress, string title, string description, uint totalDonated);\n\tevent VoteRecorded(address fundAddress, address voter, bool approval, uint donationAmount, uint passingVotes, uint failingVotes);\n\tevent NextMilestone(address fundAddress, uint milestoneIndex);\n\tevent FundsClaimed(address fundAddress, address retreiver, uint refund, uint currentbalance, uint proportionDonated);\n\n\n\tmodifier restrictOwner {\n\t\trequire(!(msg.sender == owner));\n\t\t_;\n\t}\n\n\tmodifier notAcceptingDonations {\n\t\trequire(!acceptingDonations);\n\t\t_;\n\t}\n\n\t/**\n\t* @dev checks that the current milestone is passed.\n\t* A milestone is passed if:\n\t*1. More than 50% of donors vote\n\t*2. The total weight of passing votes is greater than weight of failing votes\n\t*/\n\n\tmodifier milestonePassed {\n\t\tMilestones memory currentMilestone = milestones[currentMilestoneIndex];\n\t\trequire(currentMilestone.totalVoted >= SafeMath.div(totalDonors, 2));\n\t\trequire(currentMilestone.passingVotes > currentMilestone.failingVotes);\n\t\t_;\n\t}\n\n\t/**\n\t* @dev checks that the current milestone is failed.\n\t* A milestone is failed if:\n\t*1. Less than 50% of donors vote\n\t*2. The total weight of failing votes is greater than weight of passing votes\n\t*/\n\n\tmodifier milestoneFailed {\n\t\tMilestones memory currentMilestone = milestones[currentMilestoneIndex];\n\t\trequire(currentMilestone.totalVoted >= SafeMath.div(totalDonors, 2));\n\t\trequire(currentMilestone.passingVotes < currentMilestone.failingVotes);\n\t\t_;\n\t}\n\n\t/**\n\t* @dev checks that the current milestone is failed.\n\t* A milestone is failed if:\n\t*1. Less than 50% of donors vote\n\t*2. The total weight of failing votes is greater than weight of passing votes\n\t*/\n\n\tmodifier milestonesRemaining {\n\t\trequire(currentMilestoneIndex < milestones.length);\n\t\t_;\n\t}\n\n\t/**\n\t * @dev Sets the starting values of owner, totalDonated, totalDonors\n\t * and currentMilestoneIndex variables\n\t */\n\tconstructor() public {\n\t\towner = msg.sender;\n\t\ttotalDonated = 0;\n\t\ttotalDonors = 0;\n\t\tcurrentMilestoneIndex = 0;\n\t}\n\n\t/**\n\t* @dev Fallback function\n\t*/\n\tfunction() public payable {\n\t  revert();\n\t}\n\n\t/**\n\t * @dev Sets the requirements of the fund\n\t * @param name The name of the fund\n\t * @param descrip The description of the goals of the fund\n\t * @param target The target amount the fund needs to raise to be deployed\n\t * @param minDonors The min number of donors for the fund to be deployed\n\t */\n\n\tfunction initializeFund(\n\t\tstring name,\n\t\tstring descrip,\n\t\tuint target,\n\t\tuint minDonors\n\t\t)\n\t\tpublic\n\t\tonlyOwner\n\t\t{\n\t\trequire(!fundInitialized);\n\t\ttitle = name;\n\t\tdescription = descrip;\n\t\ttargetAmount = target;\n\t\tminNumberDonators = minDonors;\n\t\tfundInitialized = true;\n\t\temit FundInitialized(msg.sender, title, description, targetAmount, minNumberDonators);\n\t}\n\n\t/**\n\t * @dev Provides a summary of the current state of the fund\n\t * @return owner The address of the owner.\n\t * @return totalDonors The total number of donors.\n\t * @return minNumberDonators The minimum number of donors for owner to deploy fund.\n\t * @return totalDonated The total amount donated to the fund.\n\t * @return targetAmount The target amount the fund needs to raise to deploy.\n\t * @return acceptingDonations Whether the fund is accepting donations.\n\t * @return active Whether the fund is accepting votes.\n\t */\n\n\tfunction fundSummary()\n\t\tpublic\n\t\tview\n\t\treturns(address, uint, uint, uint, uint, bool, bool, string, string)\n\t{\n\t\trequire(fundInitialized);\n\n\t\treturn (owner, totalDonors, minNumberDonators, totalDonated,\n\t\ttargetAmount, acceptingDonations, active, title, description);\n\t}\n\n\t/**\n\t* @dev Adds a milestone to the fund\n\t* @param _name name of the milestone\n\t* @param _description description of what is to be achieved in the milestone\n\t*/\n\tfunction addMilestone(string _name, string _description)\n\t\tonlyOwner\n\t\tnotAcceptingDonations\n\t\tpublic\n\t{\n\t\trequire(fundInitialized);\n\t\trequire(!active);\n\n\t\tMilestones memory newMilestone = Milestones({\n\t\t\tname: _name,\n\t\t\tdescription: _description,\n\t\t\tpassingVotes: 0,\n\t\t\tfailingVotes: 0,\n\t\t\ttotalVoted: 0,\n\t\t\tacceptingVotes: false\n\t\t});\n\n\t\tmilestones.push(newMilestone);\n\t\temit MilestoneAdded(_name, _description);\n\t}\n\n\t/**\n\t * @dev returns the details of the milestone\n\t * @return name The name of milestone\n\t * @return description The description of milestone\n\t * @return passingVotes The number of passing votes\n\t * @return failingVotes The number of failing votes\n\t * @return totalvoted The number of donors who have voted pass or fail\n\t * @return acceptingVotes Whether the milestone is still taking votes\n\t */\n\n\tfunction returnMilestone(uint index)\n\t\tpublic\n\t\tview\n\t\treturns (string, string, uint, uint, uint, bool)\n\t{\n\t\trequire(fundInitialized);\n\n\t\tMilestones memory milestone = milestones[index];\n\t\treturn (milestone.name, milestone.description, milestone.passingVotes,\n\t\tmilestone.failingVotes, milestone.totalVoted, milestone.acceptingVotes);\n\t}\n\n\t/**\n\t* @dev Gets the total number of milestones added\n\t* @return length The number of milestones for the fund\n\t*/\n\n\tfunction getMilestonesCount()\n\t\tpublic\n\t\tview\n\t\treturns (uint)\n\t{\n\t\treturn milestones.length;\n\t}\n\n\t/**\n\t* @dev Deploys fund and opens fund up for donations\n\t*/\n\n\tfunction deployFund()\n\t\tonlyOwner\n\t\tnotAcceptingDonations\n\t\tpublic\n\t{\n\t\trequire(milestones.length >= 1);\n\t\trequire(fundInitialized);\n\n\t\tacceptingDonations = true;\n\t\temit FundDeployed(msg.sender, title, description);\n\n\t}\n\n\t/**\n\t* @dev Allows a donor to make a donation to the fund\n\t*/\n\n  function makeDonation()\n\t\trestrictOwner\n\t\tpayable\n\t\twhenNotPaused\n\t\tpublic\n\t{\n    require(!donated[msg.sender]);\n\t\trequire(acceptingDonations);\n\n    totalDonated = SafeMath.add(totalDonated, msg.value);\n\t\ttotalDonors++;\n    donated[msg.sender] = true;\n\t\tamountDonated[msg.sender] = msg.value;\n\t\temit DonationReceived(owner, msg.sender, msg.value);\n  }\n\n\t/**\n\t* @dev Closes the fund to donations, releases the first installment to\n\t* the owner of the fund, and opens up voting on the first milestone.\n\t*/\n\n\tfunction activateFund()\n\t\tonlyOwner\n\t\twhenNotPaused\n\t\tpayable\n\t\tpublic\n\t{\n\t\trequire(!active);\n\t\trequire(acceptingDonations);\n\t\trequire(totalDonated >= targetAmount);\n\t\trequire(totalDonors >= minNumberDonators);\n\n\t\tuint split = SafeMath.add(milestones.length, 1);\n\t\tuint installment = SafeMath.div(totalDonated, split);\n    owner.transfer(installment);\n    milestones[currentMilestoneIndex].acceptingVotes = true;\n\t\tacceptingDonations = false;\n\t\tactive = true;\n\t\temit FundActivated(owner, title, description, totalDonated);\n\t}\n\n\t/**\n\t* @dev Records the vote of the donor. Donors' votes are weighted based on\n\t* the proportion of total donations their inidividual donation accounts for.\n\t* @param vote Donor's vote of the fund passing or failing the current\n\t* milestone. true is Pass, false is Fail.\n\t*/\n\n  function recordVote(bool vote)\n\t\trestrictOwner\n\t\tnotAcceptingDonations\n\t\tpublic\n\t{\n    require(donated[msg.sender]);\n    require(!(milestones[currentMilestoneIndex].voted[msg.sender]));\n    require(milestones[currentMilestoneIndex].acceptingVotes);\n    require(active);\n\n\t\tuint donationAmount = amountDonated[msg.sender];\n\t\tuint passingVotes = milestones[currentMilestoneIndex].passingVotes;\n\t\tuint failingVotes = milestones[currentMilestoneIndex].failingVotes;\n\n\t\tif (vote) {\n\t\t\tmilestones[currentMilestoneIndex].passingVotes = SafeMath.add(passingVotes, donationAmount);\n\n\t\t} else {\n\t\t\tmilestones[currentMilestoneIndex].failingVotes = SafeMath.add(failingVotes, donationAmount);\n\t\t}\n\t\tmilestones[currentMilestoneIndex].totalVoted++;\n\t\tmilestones[currentMilestoneIndex].voted[msg.sender] = true;\n\t\temit VoteRecorded( owner, msg.sender, vote, donationAmount, passingVotes, failingVotes);\n  }\n\n\t/**\n\t* @dev Moves the fund on to the next milestone. When called by the owner,\n\t* funds are released to the owner if the donors of the fund vote that\n\t* the milestone is met. Once the milestone is met, the voting is open for\n\t* the next milestone.\n\t*/\n\n\tfunction nextMilestone()\n\t\tnotAcceptingDonations\n\t\tmilestonesRemaining\n\t\tonlyOwner\n\t\tmilestonePassed\n\t\twhenNotPaused\n\t\tpayable\n\t\tpublic\n\t{\n\t\tbool acceptingVotes = milestones[currentMilestoneIndex].acceptingVotes;\n\t\trequire(acceptingVotes);\n\t\trequire(active);\n\n\t\tuint split = SafeMath.add(milestones.length, 1);\n\t\tuint installment = SafeMath.div(totalDonated, split);\n\t\towner.transfer(installment);\n\t\tmilestones[currentMilestoneIndex].acceptingVotes = false;\n\t\tcurrentMilestoneIndex++;\n\t\tmilestones[currentMilestoneIndex].acceptingVotes = true;\n\t\temit NextMilestone( owner, currentMilestoneIndex);\n\t}\n\n\t/**\n\t* @dev Can be called by the donors to claim the remaining funds if a milestone\n\t* fails. Once the donors claim funds, votes are no longer accepted for the\n\t* milestone.\n\t*/\n\tfunction claimFunds()\n\t\trestrictOwner\n\t\tmilestoneFailed\n\t\tpayable\n\t\twhenNotPaused\n\t\tpublic\n\t{\n\t\trequire(donated[msg.sender]);\n\t\trequire(!claimedFunds[msg.sender]);\n    /*since solidity doesn't account for decimals, we are multiplying\n    by 1000 to get the result up to 3 decimal places.\n    */\n\t\tuint adjustedDonation = SafeMath.mul(amountDonated[msg.sender], 1000);\n\t\tuint proportionDonated = SafeMath.div(adjustedDonation, totalDonated);\n\t\temit FundsClaimed(owner, msg.sender, adjustedDonation, totalDonated, proportionDonated);\n\t\tuint refund = SafeMath.mul(proportionDonated, address(this).balance);\n\t\t//adjusting the refund\n\t\trefund = SafeMath.div(refund, 1000);\n\t\tclaimedFunds[msg.sender]= true;\n\t\tmsg.sender.transfer(refund);\n\t\tmilestones[currentMilestoneIndex].acceptingVotes = false;\n\n\t}\n\n}\n",
  "sourcePath": "/Users/nathanfeng/Projects/portfolio/decentralized-charity-platform/contracts/Fund.sol",
  "compiler": {
    "name": "solc",
    "version": "0.4.24+commit.e67f0147.Emscripten.clang"
  },
  "schemaVersion": "2.0.1",
  "updatedAt": "2018-08-26T19:20:41.581Z"
}