{
  "contractName": "Fund",
  "abi": [
    {
      "constant": true,
      "inputs": [],
      "name": "totalDonated",
      "outputs": [
        {
          "name": "",
          "type": "uint256"
        }
      ],
      "payable": false,
      "stateMutability": "view",
      "type": "function"
    },
    {
      "constant": true,
      "inputs": [],
      "name": "active",
      "outputs": [
        {
          "name": "",
          "type": "bool"
        }
      ],
      "payable": false,
      "stateMutability": "view",
      "type": "function"
    },
    {
      "constant": true,
      "inputs": [],
      "name": "totalDonors",
      "outputs": [
        {
          "name": "",
          "type": "uint256"
        }
      ],
      "payable": false,
      "stateMutability": "view",
      "type": "function"
    },
    {
      "constant": false,
      "inputs": [],
      "name": "unpause",
      "outputs": [],
      "payable": false,
      "stateMutability": "nonpayable",
      "type": "function"
    },
    {
      "constant": true,
      "inputs": [],
      "name": "title",
      "outputs": [
        {
          "name": "",
          "type": "string"
        }
      ],
      "payable": false,
      "stateMutability": "view",
      "type": "function"
    },
    {
      "constant": true,
      "inputs": [],
      "name": "minNumberDonators",
      "outputs": [
        {
          "name": "",
          "type": "uint256"
        }
      ],
      "payable": false,
      "stateMutability": "view",
      "type": "function"
    },
    {
      "constant": true,
      "inputs": [],
      "name": "paused",
      "outputs": [
        {
          "name": "",
          "type": "bool"
        }
      ],
      "payable": false,
      "stateMutability": "view",
      "type": "function"
    },
    {
      "constant": false,
      "inputs": [],
      "name": "renounceOwnership",
      "outputs": [],
      "payable": false,
      "stateMutability": "nonpayable",
      "type": "function"
    },
    {
      "constant": true,
      "inputs": [],
      "name": "description",
      "outputs": [
        {
          "name": "",
          "type": "string"
        }
      ],
      "payable": false,
      "stateMutability": "view",
      "type": "function"
    },
    {
      "constant": true,
      "inputs": [],
      "name": "acceptingDonations",
      "outputs": [
        {
          "name": "",
          "type": "bool"
        }
      ],
      "payable": false,
      "stateMutability": "view",
      "type": "function"
    },
    {
      "constant": false,
      "inputs": [],
      "name": "pause",
      "outputs": [],
      "payable": false,
      "stateMutability": "nonpayable",
      "type": "function"
    },
    {
      "constant": true,
      "inputs": [],
      "name": "owner",
      "outputs": [
        {
          "name": "",
          "type": "address"
        }
      ],
      "payable": false,
      "stateMutability": "view",
      "type": "function"
    },
    {
      "constant": true,
      "inputs": [],
      "name": "targetAmount",
      "outputs": [
        {
          "name": "",
          "type": "uint256"
        }
      ],
      "payable": false,
      "stateMutability": "view",
      "type": "function"
    },
    {
      "constant": true,
      "inputs": [],
      "name": "currentMilestoneIndex",
      "outputs": [
        {
          "name": "",
          "type": "uint256"
        }
      ],
      "payable": false,
      "stateMutability": "view",
      "type": "function"
    },
    {
      "constant": true,
      "inputs": [],
      "name": "fundInitialized",
      "outputs": [
        {
          "name": "",
          "type": "bool"
        }
      ],
      "payable": false,
      "stateMutability": "view",
      "type": "function"
    },
    {
      "constant": true,
      "inputs": [
        {
          "name": "",
          "type": "uint256"
        }
      ],
      "name": "milestones",
      "outputs": [
        {
          "name": "name",
          "type": "string"
        },
        {
          "name": "description",
          "type": "string"
        },
        {
          "name": "passingVotes",
          "type": "uint256"
        },
        {
          "name": "failingVotes",
          "type": "uint256"
        },
        {
          "name": "totalVoted",
          "type": "uint256"
        },
        {
          "name": "acceptingVotes",
          "type": "bool"
        }
      ],
      "payable": false,
      "stateMutability": "view",
      "type": "function"
    },
    {
      "constant": false,
      "inputs": [
        {
          "name": "_newOwner",
          "type": "address"
        }
      ],
      "name": "transferOwnership",
      "outputs": [],
      "payable": false,
      "stateMutability": "nonpayable",
      "type": "function"
    },
    {
      "constant": true,
      "inputs": [
        {
          "name": "",
          "type": "address"
        }
      ],
      "name": "donated",
      "outputs": [
        {
          "name": "",
          "type": "bool"
        }
      ],
      "payable": false,
      "stateMutability": "view",
      "type": "function"
    },
    {
      "constant": true,
      "inputs": [
        {
          "name": "",
          "type": "address"
        }
      ],
      "name": "amountDonated",
      "outputs": [
        {
          "name": "",
          "type": "uint256"
        }
      ],
      "payable": false,
      "stateMutability": "view",
      "type": "function"
    },
    {
      "inputs": [],
      "payable": false,
      "stateMutability": "nonpayable",
      "type": "constructor"
    },
    {
      "anonymous": false,
      "inputs": [
        {
          "indexed": false,
          "name": "owner",
          "type": "address"
        },
        {
          "indexed": false,
          "name": "title",
          "type": "string"
        },
        {
          "indexed": false,
          "name": "description",
          "type": "string"
        },
        {
          "indexed": false,
          "name": "targetAmount",
          "type": "uint256"
        },
        {
          "indexed": false,
          "name": "minNumberDonators",
          "type": "uint256"
        }
      ],
      "name": "FundInitialized",
      "type": "event"
    },
    {
      "anonymous": false,
      "inputs": [
        {
          "indexed": false,
          "name": "name",
          "type": "string"
        },
        {
          "indexed": false,
          "name": "description",
          "type": "string"
        }
      ],
      "name": "MilestoneAdded",
      "type": "event"
    },
    {
      "anonymous": false,
      "inputs": [
        {
          "indexed": false,
          "name": "owner",
          "type": "address"
        },
        {
          "indexed": false,
          "name": "title",
          "type": "string"
        },
        {
          "indexed": false,
          "name": "description",
          "type": "string"
        }
      ],
      "name": "FundDeployed",
      "type": "event"
    },
    {
      "anonymous": false,
      "inputs": [
        {
          "indexed": false,
          "name": "fundAddress",
          "type": "address"
        },
        {
          "indexed": false,
          "name": "donorAddress",
          "type": "address"
        },
        {
          "indexed": false,
          "name": "amount",
          "type": "uint256"
        }
      ],
      "name": "DonationReceived",
      "type": "event"
    },
    {
      "anonymous": false,
      "inputs": [
        {
          "indexed": false,
          "name": "fundAddress",
          "type": "address"
        },
        {
          "indexed": false,
          "name": "title",
          "type": "string"
        },
        {
          "indexed": false,
          "name": "description",
          "type": "string"
        },
        {
          "indexed": false,
          "name": "totalDonated",
          "type": "uint256"
        }
      ],
      "name": "FundActivated",
      "type": "event"
    },
    {
      "anonymous": false,
      "inputs": [
        {
          "indexed": false,
          "name": "fundAddress",
          "type": "address"
        },
        {
          "indexed": false,
          "name": "voter",
          "type": "address"
        },
        {
          "indexed": false,
          "name": "approval",
          "type": "bool"
        }
      ],
      "name": "VoteRecorded",
      "type": "event"
    },
    {
      "anonymous": false,
      "inputs": [
        {
          "indexed": false,
          "name": "fundAddress",
          "type": "address"
        },
        {
          "indexed": false,
          "name": "milestoneIndex",
          "type": "uint256"
        }
      ],
      "name": "NextMilestone",
      "type": "event"
    },
    {
      "anonymous": false,
      "inputs": [
        {
          "indexed": false,
          "name": "fundAddress",
          "type": "address"
        },
        {
          "indexed": false,
          "name": "retreiver",
          "type": "address"
        }
      ],
      "name": "FundsClaimed",
      "type": "event"
    },
    {
      "anonymous": false,
      "inputs": [],
      "name": "Pause",
      "type": "event"
    },
    {
      "anonymous": false,
      "inputs": [],
      "name": "Unpause",
      "type": "event"
    },
    {
      "anonymous": false,
      "inputs": [
        {
          "indexed": true,
          "name": "previousOwner",
          "type": "address"
        }
      ],
      "name": "OwnershipRenounced",
      "type": "event"
    },
    {
      "anonymous": false,
      "inputs": [
        {
          "indexed": true,
          "name": "previousOwner",
          "type": "address"
        },
        {
          "indexed": true,
          "name": "newOwner",
          "type": "address"
        }
      ],
      "name": "OwnershipTransferred",
      "type": "event"
    },
    {
      "constant": false,
      "inputs": [
        {
          "name": "name",
          "type": "string"
        },
        {
          "name": "descrip",
          "type": "string"
        },
        {
          "name": "target",
          "type": "uint256"
        },
        {
          "name": "minDonors",
          "type": "uint256"
        }
      ],
      "name": "initializeFund",
      "outputs": [],
      "payable": false,
      "stateMutability": "nonpayable",
      "type": "function"
    },
    {
      "constant": true,
      "inputs": [],
      "name": "fundSummary",
      "outputs": [
        {
          "name": "",
          "type": "address"
        },
        {
          "name": "",
          "type": "uint256"
        },
        {
          "name": "",
          "type": "uint256"
        },
        {
          "name": "",
          "type": "uint256"
        },
        {
          "name": "",
          "type": "uint256"
        },
        {
          "name": "",
          "type": "bool"
        },
        {
          "name": "",
          "type": "bool"
        }
      ],
      "payable": false,
      "stateMutability": "view",
      "type": "function"
    },
    {
      "constant": false,
      "inputs": [
        {
          "name": "_name",
          "type": "string"
        },
        {
          "name": "_description",
          "type": "string"
        }
      ],
      "name": "addMilestone",
      "outputs": [],
      "payable": false,
      "stateMutability": "nonpayable",
      "type": "function"
    },
    {
      "constant": true,
      "inputs": [
        {
          "name": "index",
          "type": "uint256"
        }
      ],
      "name": "returnMilestone",
      "outputs": [
        {
          "name": "",
          "type": "string"
        },
        {
          "name": "",
          "type": "string"
        },
        {
          "name": "",
          "type": "uint256"
        },
        {
          "name": "",
          "type": "uint256"
        },
        {
          "name": "",
          "type": "uint256"
        },
        {
          "name": "",
          "type": "bool"
        }
      ],
      "payable": false,
      "stateMutability": "view",
      "type": "function"
    },
    {
      "constant": true,
      "inputs": [],
      "name": "getMilestonesCount",
      "outputs": [
        {
          "name": "",
          "type": "uint256"
        }
      ],
      "payable": false,
      "stateMutability": "view",
      "type": "function"
    },
    {
      "constant": false,
      "inputs": [],
      "name": "deployFund",
      "outputs": [],
      "payable": false,
      "stateMutability": "nonpayable",
      "type": "function"
    },
    {
      "constant": false,
      "inputs": [],
      "name": "makeDonation",
      "outputs": [],
      "payable": true,
      "stateMutability": "payable",
      "type": "function"
    },
    {
      "constant": false,
      "inputs": [],
      "name": "activateFund",
      "outputs": [],
      "payable": false,
      "stateMutability": "nonpayable",
      "type": "function"
    },
    {
      "constant": false,
      "inputs": [
        {
          "name": "vote",
          "type": "bool"
        }
      ],
      "name": "recordVote",
      "outputs": [],
      "payable": false,
      "stateMutability": "nonpayable",
      "type": "function"
    },
    {
      "constant": false,
      "inputs": [],
      "name": "nextMilestone",
      "outputs": [],
      "payable": true,
      "stateMutability": "payable",
      "type": "function"
    },
    {
      "constant": false,
      "inputs": [],
      "name": "claimFunds",
      "outputs": [],
      "payable": true,
      "stateMutability": "payable",
      "type": "function"
    }
  ],
  "bytecode": "0x60806040526000805460a060020a60ff021916905534801561002057600080fd5b5060008054600160a060020a03191633178155600781905560068190556008556121198061004f6000396000f30060806040526004361061017e5763ffffffff7c0100000000000000000000000000000000000000000000000000000000600035041662b37044811461018357806302fb0c5e146101aa57806307aca9c2146101d35780630b49351c146101ea57806325c302e4146101ff5780633f4ba83a1461021457806340ea0a94146102295780634a79d50c1461023157806359ba0980146102bb5780635c975abb146102d057806365f9775f146102e5578063715018a6146102ed5780637284e4161461030257806377e0a930146103175780637ee5fe271461032c5780638456cb59146103cc57806388c5a3f8146103e15780638da5cb5b146104f7578063953b8fb814610528578063a0f97cf01461053d578063abcc38f414610552578063ac30777314610567578063d020e8031461056f578063d64ee23814610584578063e1c584681461059e578063e89e4ed614610635578063f2fde38b1461064d578063f42e69761461066e578063fb690dcc146106c9578063fbeb46ff146106ea575b600080fd5b34801561018f57600080fd5b5061019861070b565b60408051918252519081900360200190f35b3480156101b657600080fd5b506101bf610711565b604080519115158252519081900360200190f35b3480156101df57600080fd5b506101e8610721565b005b3480156101f657600080fd5b506101986108ed565b34801561020b57600080fd5b506101986108f4565b34801561022057600080fd5b506101e86108fa565b6101e8610970565b34801561023d57600080fd5b50610246610a60565b6040805160208082528351818301528351919283929083019185019080838360005b83811015610280578181015183820152602001610268565b50505050905090810190601f1680156102ad5780820380516001836020036101000a031916815260200191505b509250505060405180910390f35b3480156102c757600080fd5b50610198610aeb565b3480156102dc57600080fd5b506101bf610af1565b6101e8610b01565b3480156102f957600080fd5b506101e8610e18565b34801561030e57600080fd5b50610246610e84565b34801561032357600080fd5b506101bf610edf565b34801561033857600080fd5b506040805160206004803580820135601f81018490048402850184019095528484526101e894369492936024939284019190819084018382808284375050604080516020601f89358b018035918201839004830284018301909452808352979a999881019791965091820194509250829150840183828082843750949750508435955050506020909201359150610eef9050565b3480156103d857600080fd5b506101e86110f6565b3480156103ed57600080fd5b506103f9600435611171565b60405180806020018060200187815260200186815260200185815260200184151515158152602001838103835289818151815260200191508051906020019080838360005b8381101561045657818101518382015260200161043e565b50505050905090810190601f1680156104835780820380516001836020036101000a031916815260200191505b5083810382528851815288516020918201918a019080838360005b838110156104b657818101518382015260200161049e565b50505050905090810190601f1680156104e35780820380516001836020036101000a031916815260200191505b509850505050505050505060405180910390f35b34801561050357600080fd5b5061050c611376565b60408051600160a060020a039092168252519081900360200190f35b34801561053457600080fd5b50610198611385565b34801561054957600080fd5b5061019861138b565b34801561055e57600080fd5b506101e8611391565b6101e86115d5565b34801561057b57600080fd5b506101bf6118e7565b34801561059057600080fd5b506101e860043515156118f7565b3480156105aa57600080fd5b506040805160206004803580820135601f81018490048402850184019095528484526101e894369492936024939284019190819084018382808284375050604080516020601f89358b018035918201839004830284018301909452808352979a999881019791965091820194509250829150840183828082843750949750611b069650505050505050565b34801561064157600080fd5b506103f9600435611d36565b34801561065957600080fd5b506101e8600160a060020a0360043516611ea1565b34801561067a57600080fd5b50610683611ec4565b60408051600160a060020a03909816885260208801969096528686019490945260608601929092526080850152151560a0840152151560c0830152519081900360e00190f35b3480156106d557600080fd5b506101bf600160a060020a0360043516611f2b565b3480156106f657600080fd5b50610198600160a060020a0360043516611f40565b60075481565b60015460b060020a900460ff1681565b600054600160a060020a0316331461073857600080fd5b60005460a060020a900460ff161561074f57600080fd5b60015460a860020a900460ff161561076657600080fd5b600b546001111561077657600080fd5b60015460a060020a900460ff16151561078e57600080fd5b6001805475ff000000000000000000000000000000000000000000191660a860020a1781556040805133808252606060208301818152600280546000199781161561010002979097019096168690049184018290527f505b9045b44d999d60e150933bebe17e3b2d0ce5fcb19d90a22ea34edda570dd95929492936003939092908301906080840190869080156108665780601f1061083b57610100808354040283529160200191610866565b820191906000526020600020905b81548152906001019060200180831161084957829003601f168201915b50508381038252845460026000196101006001841615020190911604808252602090910190859080156108da5780601f106108af576101008083540402835291602001916108da565b820191906000526020600020905b8154815290600101906020018083116108bd57829003601f168201915b50509550505050505060405180910390a1565b600b545b90565b60065481565b600054600160a060020a0316331461091157600080fd5b60005460a060020a900460ff16151561092957600080fd5b6000805474ff0000000000000000000000000000000000000000191681556040517f7805862f689e2f13df9f062ff482ad3ad112aca9e0847911ed832e158c525b339190a1565b600154600160a060020a031633141561098857600080fd5b60005460a060020a900460ff161561099f57600080fd5b336000908152600a602052604090205460ff16156109bc57600080fd5b60015460a860020a900460ff1615156109d457600080fd5b6007805434908101909155600680546001908101909155336000818152600a60209081526040808320805460ff191686179055600982529182902085905592548151600160a060020a03919091168152928301919091528181019290925290517f509fb5d764cf5e98b9f02a3d86350f8085cedb516140098d2d6fc2eb6256ac249181900360600190a1565b6002805460408051602060018416156101000260001901909316849004601f81018490048402820184019092528181529291830182828015610ae35780601f10610ab857610100808354040283529160200191610ae3565b820191906000526020600020905b815481529060010190602001808311610ac657829003601f168201915b505050505081565b60055481565b60005460a060020a900460ff1681565b600154600090819060a860020a900460ff1615610b1d57600080fd5b600054600160a060020a03163314610b3457600080fd5b610b3c61201c565b600b600854815481101515610b4d57fe5b600091825260209182902060408051600793909302909101805460026001821615610100026000190190911604601f8101859004909402830160e090810190925260c0830184815292939092849290918491840182828015610bf05780601f10610bc557610100808354040283529160200191610bf0565b820191906000526020600020905b815481529060010190602001808311610bd357829003601f168201915b50505050508152602001600182018054600181600116156101000203166002900480601f016020809104026020016040519081016040528092919081815260200182805460018160011615610100020316600290048015610c925780601f10610c6757610100808354040283529160200191610c92565b820191906000526020600020905b815481529060010190602001808311610c7557829003601f168201915b50505091835250506002828101546020830152600383015460408301526004830154606083015260059092015460ff161515608090910152600654919250610cda9190611f52565b60808201511015610cea57600080fd5b6060810151604082015111610cfe57600080fd5b60005460a060020a900460ff1615610d1557600080fd5b600b600854815481101515610d2657fe5b600091825260209091206005600790920201015460ff169250821515610d4b57600080fd5b60015460b060020a900460ff161515610d6357600080fd5b6000303111610d7157600080fd5b600754600b54610d819190611f52565b600154604051919350600160a060020a03169083156108fc029084906000818181858888f19350505050158015610dbc573d6000803e3d6000fd5b5060088054600190810191829055805460408051600160a060020a039092168252602082019390935282519195507f54484603061911f00599f684098b06f93cd3d4359f303422c69e2a742d3cd40d92908290030190a1505050565b600054600160a060020a03163314610e2f57600080fd5b60008054604051600160a060020a03909116917ff8df31144d9c2f0f6b59d69b8b98abd5459d07f2742c4df920b25aae33c6482091a26000805473ffffffffffffffffffffffffffffffffffffffff19169055565b6003805460408051602060026001851615610100026000190190941693909304601f81018490048402820184019092528181529291830182828015610ae35780601f10610ab857610100808354040283529160200191610ae3565b60015460a860020a900460ff1681565b600054600160a060020a03163314610f0657600080fd5b60005460a060020a900460ff1615610f1d57600080fd5b60015460a060020a900460ff1615610f3457600080fd5b6001805473ffffffffffffffffffffffffffffffffffffffff1916331790558351610f66906002906020870190612055565b508251610f7a906003906020860190612055565b50600482905560058190556001805474ff0000000000000000000000000000000000000000191660a060020a1781556040805133808252606082018690526080820185905260a060208301818152600280549687161561010002600019019096168690049184018290527f09a7abc75945a696681435f19493996f1c7cc733b8b2fdfb894ba49364d2756e9592949293600393899389939183019060c0840190889080156110695780601f1061103e57610100808354040283529160200191611069565b820191906000526020600020905b81548152906001019060200180831161104c57829003601f168201915b50508381038252865460026000196101006001841615020190911604808252602090910190879080156110dd5780601f106110b2576101008083540402835291602001916110dd565b820191906000526020600020905b8154815290600101906020018083116110c057829003601f168201915b505097505050505050505060405180910390a150505050565b600054600160a060020a0316331461110d57600080fd5b60005460a060020a900460ff161561112457600080fd5b6000805474ff0000000000000000000000000000000000000000191660a060020a1781556040517f6985a02210a168e66602d3235cb6db0e70f92b3ba4d376a33c0f3d9434bff6259190a1565b60608060008060008061118261201c565b60005460a060020a900460ff161561119957600080fd5b60015460a060020a900460ff1615156111b157600080fd5b600b8054899081106111bf57fe5b600091825260209182902060408051600793909302909101805460026001821615610100026000190190911604601f8101859004909402830160e090810190925260c08301848152929390928492909184918401828280156112625780601f1061123757610100808354040283529160200191611262565b820191906000526020600020905b81548152906001019060200180831161124557829003601f168201915b50505050508152602001600182018054600181600116156101000203166002900480601f0160208091040260200160405190810160405280929190818152602001828054600181600116156101000203166002900480156113045780601f106112d957610100808354040283529160200191611304565b820191906000526020600020905b8154815290600101906020018083116112e757829003601f168201915b505050918352505060028201546020808301919091526003830154604080840191909152600484015460608085019190915260059094015460ff16151560809384015284519185015190850151938501519285015160a090950151919d909c50929a5090985091965090945092505050565b600154600160a060020a031681565b60045481565b60085481565b60008054600160a060020a031633146113a957600080fd5b60005460a060020a900460ff16156113c057600080fd5b60015460b060020a900460ff16156113d757600080fd5b60015460a860020a900460ff1615156113ef57600080fd5b600454600754101561140057600080fd5b600554600654101561141157600080fd5b600754600b546114219190611f52565b600154604051919250600160a060020a03169082156108fc029083906000818181858888f1935050505015801561145c573d6000803e3d6000fd5b506001805476ffff000000000000000000000000000000000000000000191660b060020a1780825560075460408051600160a060020a0390931680845260608401839052608060208501818152600280546000199881161561010002989098019097168790049186018290527f9ccdf7d0261aacc9af5c9a292960b52d6398156b6292d6ef1919de5843573c6296929592946003949093929083019060a08401908790801561154c5780601f106115215761010080835404028352916020019161154c565b820191906000526020600020905b81548152906001019060200180831161152f57829003601f168201915b50508381038252855460026000196101006001841615020190911604808252602090910190869080156115c05780601f10611595576101008083540402835291602001916115c0565b820191906000526020600020905b8154815290600101906020018083116115a357829003601f168201915b5050965050505050505060405180910390a150565b60015460009081908190600160a060020a03163314156115f457600080fd5b6115fc61201c565b600b60085481548110151561160d57fe5b600091825260209182902060408051600793909302909101805460026001821615610100026000190190911604601f8101859004909402830160e090810190925260c08301848152929390928492909184918401828280156116b05780601f10611685576101008083540402835291602001916116b0565b820191906000526020600020905b81548152906001019060200180831161169357829003601f168201915b50505050508152602001600182018054600181600116156101000203166002900480601f0160208091040260200160405190810160405280929190818152602001828054600181600116156101000203166002900480156117525780601f1061172757610100808354040283529160200191611752565b820191906000526020600020905b81548152906001019060200180831161173557829003601f168201915b50505091835250506002828101546020830152600383015460408301526004830154606083015260059092015460ff16151560809091015260065491925061179a9190611f52565b608082015110156117aa57600080fd5b60608101516040820151106117be57600080fd5b60005460a060020a900460ff16156117d557600080fd5b336000908152600a602052604090205460ff1615156117f357600080fd5b600030311161180157600080fd5b33600090815260096020526040902054600754909450611822908590611f52565b925061182f833031611f69565b604051909250339083156108fc029084906000818181858888f1935050505015801561185f573d6000803e3d6000fd5b506000600b60085481548110151561187357fe5b600091825260209182902060079190910201600501805460ff19169215159290921790915560015460408051600160a060020a039092168252339282019290925281517f2b6fd677124e244b62e821a2d08147e504e91b5ed22f0ab16370a8b1b0618b77929181900390910190a150505050565b60015460a060020a900460ff1681565b6001546000908190600160a060020a031633141561191457600080fd5b60005460a060020a900460ff161561192b57600080fd5b60015460a860020a900460ff161561194257600080fd5b336000908152600a602052604090205460ff16151561196057600080fd5b600b60085481548110151561197157fe5b600091825260208083203384526006600790930201919091019052604090205460ff161561199e57600080fd5b60015460b060020a900460ff1615156119b657600080fd5b336000908152600960205260409020546007546119d39190611f52565b91506119e0826064611f69565b90508215611a1a57611a14600b6008548154811015156119fc57fe5b90600052602060002090600702016002015482611f92565b50611a48565b611a46600b600854815481101515611a2e57fe5b90600052602060002090600702016003015482611f92565b505b600b600854815481101515611a5957fe5b6000918252602090912060046007909202010180546001908101909155600854600b80549091908110611a8857fe5b6000918252602080832033808552600793909302016006018152604092839020805460ff1916941515949094179093556001548251600160a060020a0390911681529283015284151582820152517fbaf23d1fe654a1160a559d6ecc856b2bdebc788a4f909c49ea0c8948d132cfd9916060908290030190a1505050565b611b0e61201c565b600054600160a060020a03163314611b2557600080fd5b60005460a060020a900460ff1615611b3c57600080fd5b60015460a060020a900460ff161515611b5457600080fd5b506040805160c08101825283815260208082018490526000928201839052606082018390526080820183905260a08201839052600b805460018101808355919094528251805193949193859360079093027f0175b7a638427703f0dbe7bb9bbf987a2551717b34e79f33b5b1008d1fa01db90192611bd6928492910190612055565b506020828101518051611bef9260018501920190612055565b5060408201518160020155606082015181600301556080820151816004015560a08201518160050160006101000a81548160ff0219169083151502179055505050507faa3394af2e59af9f550323dff5e3bb6955cc533473f446a1705b13a2710e6fbf8383604051808060200180602001838103835285818151815260200191508051906020019080838360005b83811015611c95578181015183820152602001611c7d565b50505050905090810190601f168015611cc25780820380516001836020036101000a031916815260200191505b50838103825284518152845160209182019186019080838360005b83811015611cf5578181015183820152602001611cdd565b50505050905090810190601f168015611d225780820380516001836020036101000a031916815260200191505b5094505050505060405180910390a1505050565b600b805482908110611d4457fe5b60009182526020918290206007919091020180546040805160026001841615610100026000190190931692909204601f810185900485028301850190915280825291935091839190830182828015611ddd5780601f10611db257610100808354040283529160200191611ddd565b820191906000526020600020905b815481529060010190602001808311611dc057829003601f168201915b505050505090806001018054600181600116156101000203166002900480601f016020809104026020016040519081016040528092919081815260200182805460018160011615610100020316600290048015611e7b5780601f10611e5057610100808354040283529160200191611e7b565b820191906000526020600020905b815481529060010190602001808311611e5e57829003601f168201915b505050506002830154600384015460048501546005909501549394919390925060ff1686565b600054600160a060020a03163314611eb857600080fd5b611ec181611f9f565b50565b6000806000806000806000600160149054906101000a900460ff161515611eea57600080fd5b5050600154600654600554600754600454600160a060020a0385169a9399509197509550935060ff60a860020a83048116935060b060020a90920490911690565b600a6020526000908152604090205460ff1681565b60096020526000908152604090205481565b60008183811515611f5f57fe5b0490505b92915050565b6000821515611f7a57506000611f63565b50818102818382811515611f8a57fe5b0414611f6357fe5b81810182811015611f6357fe5b600160a060020a0381161515611fb457600080fd5b60008054604051600160a060020a03808516939216917f8be0079c531659141344cd1fd0a4f28419497f9722a3daafe3b4186f6b6457e091a36000805473ffffffffffffffffffffffffffffffffffffffff1916600160a060020a0392909216919091179055565b60c06040519081016040528060608152602001606081526020016000815260200160008152602001600081526020016000151581525090565b828054600181600116156101000203166002900490600052602060002090601f016020900481019282601f1061209657805160ff19168380011785556120c3565b828001600101855582156120c3579182015b828111156120c35782518255916020019190600101906120a8565b506120cf9291506120d3565b5090565b6108f191905b808211156120cf57600081556001016120d95600a165627a7a723058207ab304d0ce73488df3e9e1f518f8e6ee551132d705c0dcd1dd5a12af1b3e9e050029",
  "source": "pragma solidity ^0.4.24;\n\nimport '../client/node_modules/openzeppelin-solidity/contracts/ownership/Ownable.sol';\nimport \"../client/node_modules/openzeppelin-solidity/contracts/lifecycle/Pausable.sol\";\nimport \"../client/node_modules/openzeppelin-solidity/contracts/math/SafeMath.sol\";\n\n/* the Funds contract keeps track of donors, donations, calculates the\n  weight of each vote, handles the fundraising period and the time period\n  in which funds are accepted.\n*/\ncontract Fund is Ownable, Pausable {\n\n\tstruct Milestones {\n\t\tstring name;\n\t\tstring description;\n\t\tuint passingVotes;\n\t\tuint failingVotes;\n\t\tuint totalVoted;\n\t\tbool acceptingVotes;\n\t\tmapping (address => bool) voted;\n\t}\n\n\taddress public owner;\n\tbool public fundInitialized;\n\tbool public acceptingDonations;\n\tbool public active;\n\tstring public title;\n\tstring public description;\n\tuint public targetAmount;\n\tuint public minNumberDonators;\n\tuint public totalDonors;\n\tuint public totalDonated;\n\tuint public currentMilestoneIndex;\n\tmapping (address => uint) public amountDonated;\n\tmapping (address => bool) public donated;\n\tMilestones[] public milestones;\n\n\t//events\n\tevent FundInitialized(address owner, string title, string description, uint targetAmount, uint minNumberDonators);\n\tevent MilestoneAdded(string name, string description);\n\tevent FundDeployed(address owner, string title, string description);\n\tevent DonationReceived(address fundAddress, address donorAddress, uint amount);\n\tevent FundActivated(address fundAddress, string title, string description, uint totalDonated);\n\tevent VoteRecorded(address fundAddress, address voter, bool approval);\n\tevent NextMilestone(address fundAddress, uint milestoneIndex);\n\tevent FundsClaimed(address fundAddress, address retreiver);\n\n\tconstructor() public {\n\t\ttotalDonated = 0;\n\t\ttotalDonors = 0;\n\t\tcurrentMilestoneIndex = 0;\n\t}\n\n\tmodifier restrictOwner {\n\t\trequire(!(msg.sender == owner));\n\t\t_;\n\t}\n\n\tmodifier notAcceptingDonations {\n\t\trequire(!acceptingDonations);\n\t\t_;\n\t}\n\n\t/* A milestone is met if:\n\t\t1. More than 50% of donors vote\n\t\t2. The total weight of approval votes is greater than failing votes\n\t*/\n\tmodifier milestonePassed {\n\t\tMilestones memory currentMilestone = milestones[currentMilestoneIndex];\n\t\trequire(currentMilestone.totalVoted >= SafeMath.div(totalDonors, 2));\n\t\trequire(currentMilestone.passingVotes > currentMilestone.failingVotes);\n\t\t_;\n\t}\n\n\tmodifier milestoneFailed {\n\t\tMilestones memory currentMilestone = milestones[currentMilestoneIndex];\n\t\trequire(currentMilestone.totalVoted >= SafeMath.div(totalDonors, 2));\n\t\trequire(currentMilestone.passingVotes < currentMilestone.failingVotes);\n\t\t_;\n\t}\n\n\tfunction initializeFund(\n\t\tstring name,\n\t\tstring descrip,\n\t\tuint target,\n\t\tuint minDonors\n\t\t)\n\t\tpublic\n\t\tonlyOwner\n\t\twhenNotPaused\n\t\t{\n\t\trequire(!fundInitialized);\n\t\towner = msg.sender;\n\t\ttitle = name;\n\t\tdescription = descrip;\n\t\ttargetAmount = target;\n\t\tminNumberDonators = minDonors;\n\t\tfundInitialized = true;\n\t\temit FundInitialized(msg.sender, title, description, targetAmount, minNumberDonators);\n\t}\n\n\tfunction fundSummary()\n\t\tpublic\n\t\tview\n\t\treturns(address, uint, uint, uint, uint, bool, bool)\n\t{\n\t\trequire(fundInitialized);\n\n\t\treturn (owner, totalDonors, minNumberDonators, totalDonated,\n\t\ttargetAmount, acceptingDonations, active);\n\t}\n\n\tfunction addMilestone(string _name, string _description)\n\t\tonlyOwner\n\t\twhenNotPaused\n\t\tpublic\n\t{\n\t\trequire(fundInitialized);\n\n\t\tMilestones memory newMilestone = Milestones({\n\t\t\tname: _name,\n\t\t\tdescription: _description,\n\t\t\tpassingVotes: 0,\n\t\t\tfailingVotes: 0,\n\t\t\ttotalVoted: 0,\n\t\t\tacceptingVotes: false\n\t\t});\n\n\t\tmilestones.push(newMilestone);\n\t\temit MilestoneAdded(_name, _description);\n\t}\n\n\tfunction returnMilestone(uint index)\n\t\tpublic\n\t\tview\n\t\twhenNotPaused\n\t\treturns (string, string, uint, uint, uint, bool)\n\t{\n\t\trequire(fundInitialized);\n\n\t\tMilestones memory milestone = milestones[index];\n\t\treturn (milestone.name, milestone.description, milestone.passingVotes,\n\t\tmilestone.failingVotes, milestone.totalVoted, milestone.acceptingVotes);\n\t}\n\n\tfunction getMilestonesCount()\n\t\tpublic\n\t\tview\n\t\treturns (uint)\n\t{\n\t\treturn milestones.length;\n\t}\n\n\tfunction deployFund()\n\t\tonlyOwner\n\t\twhenNotPaused\n\t\tnotAcceptingDonations\n\t\tpublic\n\t{\n\t\trequire(milestones.length >= 1);\n\t\trequire(fundInitialized);\n\n\t\tacceptingDonations = true;\n\t\temit FundDeployed(msg.sender, title, description);\n\n\t}\n\n  function makeDonation()\n\t\trestrictOwner\n\t\tpayable\n\t\twhenNotPaused\n\t\tpublic\n\t{\n    require(!donated[msg.sender]);\n\t\trequire(acceptingDonations);\n\n    totalDonated += msg.value;\n\t\ttotalDonors++;\n    donated[msg.sender] = true;\n\t\tamountDonated[msg.sender] = msg.value;\n\t\temit DonationReceived(owner, msg.sender, msg.value);\n  }\n\n\tfunction activateFund()\n\t\tonlyOwner\n\t\twhenNotPaused\n\t\tpublic\n\t{\n\t\trequire(!active);\n\t\trequire(acceptingDonations);\n\t\trequire(totalDonated >= targetAmount);\n\t\trequire(totalDonors >= minNumberDonators);\n\n\t\tuint installment = SafeMath.div(totalDonated, milestones.length);\n    owner.transfer(installment);\n\t\tacceptingDonations = false;\n\t\tactive = true;\n\t\temit FundActivated(owner, title, description, totalDonated);\n\t}\n\n  function recordVote(bool vote)\n\t\trestrictOwner\n\t\twhenNotPaused\n\t\tnotAcceptingDonations\n\t\tpublic\n\t{\n    require(donated[msg.sender]);\n    require(!(milestones[currentMilestoneIndex].voted[msg.sender]));\n    require(active);\n\n\t\tuint donationProportion = SafeMath.div(amountDonated[msg.sender], totalDonated);\n\t\tuint voteWeight = SafeMath.mul(donationProportion, 100);\n\n\t\tif (vote) {\n\t\t\tSafeMath.add(milestones[currentMilestoneIndex].passingVotes, voteWeight);\n\t\t} else {\n\t\t\tSafeMath.add(milestones[currentMilestoneIndex].failingVotes, voteWeight);\n\t\t}\n\t\tmilestones[currentMilestoneIndex].totalVoted++;\n\t\tmilestones[currentMilestoneIndex].voted[msg.sender] = true;\n\t\temit VoteRecorded( owner, msg.sender, vote);\n  }\n\n\t/* funds are released to the owner if the donors of the fund vote that\n\tthe milestone is met. Once the milestone is met, the voting is open for\n\tthe next milestone.\n\t*/\n\n\tfunction nextMilestone()\n\t\tnotAcceptingDonations\n\t\tonlyOwner\n\t\tmilestonePassed\n\t\twhenNotPaused\n\t\tpayable\n\t\tpublic\n\t{\n\t\tbool acceptingVotes = milestones[currentMilestoneIndex].acceptingVotes;\n\t\trequire(acceptingVotes);\n\t\trequire(active);\n\t\trequire((address(this).balance) > 0);\n\n\t\tuint installment = SafeMath.div(totalDonated, milestones.length);\n\t\towner.transfer(installment);\n\t\tacceptingVotes = false;\n\t\tcurrentMilestoneIndex++;\n\t\tacceptingVotes = true;\n\t\temit NextMilestone( owner, currentMilestoneIndex);\n\t}\n\n\t/* If a milestone failed then donors can claim funds. Once the donors claim\n\tfunds, votes are no longer accepted for the milestone.\n\t*/\n\tfunction claimFunds()\n\t\trestrictOwner\n\t\tmilestoneFailed\n\t\tpayable\n\t\twhenNotPaused\n\t\tpublic\n\t{\n\t\trequire(donated[msg.sender]);\n\t\trequire((address(this).balance) > 0);\n\n\t\tuint donation = amountDonated[msg.sender];\n\t\tuint proportionDonated = SafeMath.div(donation, totalDonated);\n\t\tuint refund = SafeMath.mul(proportionDonated, address(this).balance);\n\t\tmsg.sender.transfer(refund);\n\t\tmilestones[currentMilestoneIndex].acceptingVotes = false;\n\t\temit FundsClaimed(owner, msg.sender);\n\n\t}\n\n}\n",
  "sourcePath": "/Users/nathanfeng/Projects/portfolio/decentralized-charity-platform/contracts/Fund.sol",
  "compiler": {
    "name": "solc",
    "version": "0.4.24+commit.e67f0147.Emscripten.clang"
  },
  "schemaVersion": "2.0.1",
  "updatedAt": "2018-08-24T01:44:19.107Z"
}