{
  "contractName": "Fund",
  "abi": [
    {
      "constant": true,
      "inputs": [],
      "name": "totalDonated",
      "outputs": [
        {
          "name": "",
          "type": "uint256"
        }
      ],
      "payable": false,
      "stateMutability": "view",
      "type": "function"
    },
    {
      "constant": true,
      "inputs": [],
      "name": "active",
      "outputs": [
        {
          "name": "",
          "type": "bool"
        }
      ],
      "payable": false,
      "stateMutability": "view",
      "type": "function"
    },
    {
      "constant": true,
      "inputs": [],
      "name": "totalDonors",
      "outputs": [
        {
          "name": "",
          "type": "uint256"
        }
      ],
      "payable": false,
      "stateMutability": "view",
      "type": "function"
    },
    {
      "constant": false,
      "inputs": [],
      "name": "unpause",
      "outputs": [],
      "payable": false,
      "stateMutability": "nonpayable",
      "type": "function"
    },
    {
      "constant": true,
      "inputs": [],
      "name": "title",
      "outputs": [
        {
          "name": "",
          "type": "string"
        }
      ],
      "payable": false,
      "stateMutability": "view",
      "type": "function"
    },
    {
      "constant": true,
      "inputs": [],
      "name": "minNumberDonators",
      "outputs": [
        {
          "name": "",
          "type": "uint256"
        }
      ],
      "payable": false,
      "stateMutability": "view",
      "type": "function"
    },
    {
      "constant": true,
      "inputs": [],
      "name": "paused",
      "outputs": [
        {
          "name": "",
          "type": "bool"
        }
      ],
      "payable": false,
      "stateMutability": "view",
      "type": "function"
    },
    {
      "constant": false,
      "inputs": [],
      "name": "renounceOwnership",
      "outputs": [],
      "payable": false,
      "stateMutability": "nonpayable",
      "type": "function"
    },
    {
      "constant": true,
      "inputs": [],
      "name": "description",
      "outputs": [
        {
          "name": "",
          "type": "string"
        }
      ],
      "payable": false,
      "stateMutability": "view",
      "type": "function"
    },
    {
      "constant": true,
      "inputs": [],
      "name": "acceptingDonations",
      "outputs": [
        {
          "name": "",
          "type": "bool"
        }
      ],
      "payable": false,
      "stateMutability": "view",
      "type": "function"
    },
    {
      "constant": false,
      "inputs": [],
      "name": "pause",
      "outputs": [],
      "payable": false,
      "stateMutability": "nonpayable",
      "type": "function"
    },
    {
      "constant": true,
      "inputs": [],
      "name": "owner",
      "outputs": [
        {
          "name": "",
          "type": "address"
        }
      ],
      "payable": false,
      "stateMutability": "view",
      "type": "function"
    },
    {
      "constant": true,
      "inputs": [],
      "name": "targetAmount",
      "outputs": [
        {
          "name": "",
          "type": "uint256"
        }
      ],
      "payable": false,
      "stateMutability": "view",
      "type": "function"
    },
    {
      "constant": true,
      "inputs": [],
      "name": "currentMilestoneIndex",
      "outputs": [
        {
          "name": "",
          "type": "uint256"
        }
      ],
      "payable": false,
      "stateMutability": "view",
      "type": "function"
    },
    {
      "constant": true,
      "inputs": [],
      "name": "fundInitialized",
      "outputs": [
        {
          "name": "",
          "type": "bool"
        }
      ],
      "payable": false,
      "stateMutability": "view",
      "type": "function"
    },
    {
      "constant": true,
      "inputs": [
        {
          "name": "",
          "type": "uint256"
        }
      ],
      "name": "milestones",
      "outputs": [
        {
          "name": "name",
          "type": "string"
        },
        {
          "name": "description",
          "type": "string"
        },
        {
          "name": "passingVotes",
          "type": "uint256"
        },
        {
          "name": "failingVotes",
          "type": "uint256"
        },
        {
          "name": "totalVoted",
          "type": "uint256"
        },
        {
          "name": "acceptingVotes",
          "type": "bool"
        }
      ],
      "payable": false,
      "stateMutability": "view",
      "type": "function"
    },
    {
      "constant": false,
      "inputs": [
        {
          "name": "_newOwner",
          "type": "address"
        }
      ],
      "name": "transferOwnership",
      "outputs": [],
      "payable": false,
      "stateMutability": "nonpayable",
      "type": "function"
    },
    {
      "constant": true,
      "inputs": [
        {
          "name": "",
          "type": "address"
        }
      ],
      "name": "donated",
      "outputs": [
        {
          "name": "",
          "type": "bool"
        }
      ],
      "payable": false,
      "stateMutability": "view",
      "type": "function"
    },
    {
      "constant": true,
      "inputs": [
        {
          "name": "",
          "type": "address"
        }
      ],
      "name": "amountDonated",
      "outputs": [
        {
          "name": "",
          "type": "uint256"
        }
      ],
      "payable": false,
      "stateMutability": "view",
      "type": "function"
    },
    {
      "inputs": [
        {
          "name": "title",
          "type": "string"
        },
        {
          "name": "description",
          "type": "string"
        },
        {
          "name": "targetAmount",
          "type": "uint256"
        },
        {
          "name": "minNumberDonators",
          "type": "uint256"
        }
      ],
      "payable": false,
      "stateMutability": "nonpayable",
      "type": "constructor"
    },
    {
      "anonymous": false,
      "inputs": [
        {
          "indexed": false,
          "name": "owner",
          "type": "address"
        },
        {
          "indexed": false,
          "name": "title",
          "type": "string"
        },
        {
          "indexed": false,
          "name": "description",
          "type": "string"
        },
        {
          "indexed": false,
          "name": "targetAmount",
          "type": "uint256"
        },
        {
          "indexed": false,
          "name": "minNumberDonators",
          "type": "uint256"
        }
      ],
      "name": "FundCreated",
      "type": "event"
    },
    {
      "anonymous": false,
      "inputs": [
        {
          "indexed": false,
          "name": "name",
          "type": "string"
        },
        {
          "indexed": false,
          "name": "description",
          "type": "string"
        }
      ],
      "name": "MilestoneAdded",
      "type": "event"
    },
    {
      "anonymous": false,
      "inputs": [
        {
          "indexed": false,
          "name": "owner",
          "type": "address"
        },
        {
          "indexed": false,
          "name": "title",
          "type": "string"
        },
        {
          "indexed": false,
          "name": "description",
          "type": "string"
        }
      ],
      "name": "FundDeployed",
      "type": "event"
    },
    {
      "anonymous": false,
      "inputs": [
        {
          "indexed": false,
          "name": "fundAddress",
          "type": "address"
        },
        {
          "indexed": false,
          "name": "donorAddress",
          "type": "address"
        },
        {
          "indexed": false,
          "name": "amount",
          "type": "uint256"
        }
      ],
      "name": "DonationReceived",
      "type": "event"
    },
    {
      "anonymous": false,
      "inputs": [
        {
          "indexed": false,
          "name": "fundAddress",
          "type": "address"
        },
        {
          "indexed": false,
          "name": "title",
          "type": "string"
        },
        {
          "indexed": false,
          "name": "description",
          "type": "string"
        },
        {
          "indexed": false,
          "name": "totalDonated",
          "type": "uint256"
        }
      ],
      "name": "FundActivated",
      "type": "event"
    },
    {
      "anonymous": false,
      "inputs": [
        {
          "indexed": false,
          "name": "fundAddress",
          "type": "address"
        },
        {
          "indexed": false,
          "name": "voter",
          "type": "address"
        },
        {
          "indexed": false,
          "name": "approval",
          "type": "bool"
        }
      ],
      "name": "VoteRecorded",
      "type": "event"
    },
    {
      "anonymous": false,
      "inputs": [
        {
          "indexed": false,
          "name": "fundAddress",
          "type": "address"
        },
        {
          "indexed": false,
          "name": "milestoneIndex",
          "type": "uint256"
        }
      ],
      "name": "NextMilestone",
      "type": "event"
    },
    {
      "anonymous": false,
      "inputs": [
        {
          "indexed": false,
          "name": "fundAddress",
          "type": "address"
        },
        {
          "indexed": false,
          "name": "retreiver",
          "type": "address"
        }
      ],
      "name": "FundsClaimed",
      "type": "event"
    },
    {
      "anonymous": false,
      "inputs": [],
      "name": "Pause",
      "type": "event"
    },
    {
      "anonymous": false,
      "inputs": [],
      "name": "Unpause",
      "type": "event"
    },
    {
      "anonymous": false,
      "inputs": [
        {
          "indexed": true,
          "name": "previousOwner",
          "type": "address"
        }
      ],
      "name": "OwnershipRenounced",
      "type": "event"
    },
    {
      "anonymous": false,
      "inputs": [
        {
          "indexed": true,
          "name": "previousOwner",
          "type": "address"
        },
        {
          "indexed": true,
          "name": "newOwner",
          "type": "address"
        }
      ],
      "name": "OwnershipTransferred",
      "type": "event"
    },
    {
      "constant": true,
      "inputs": [],
      "name": "fundSummary",
      "outputs": [
        {
          "name": "",
          "type": "address"
        },
        {
          "name": "",
          "type": "uint256"
        },
        {
          "name": "",
          "type": "uint256"
        },
        {
          "name": "",
          "type": "uint256"
        },
        {
          "name": "",
          "type": "uint256"
        },
        {
          "name": "",
          "type": "bool"
        },
        {
          "name": "",
          "type": "bool"
        }
      ],
      "payable": false,
      "stateMutability": "view",
      "type": "function"
    },
    {
      "constant": false,
      "inputs": [
        {
          "name": "_name",
          "type": "string"
        },
        {
          "name": "_description",
          "type": "string"
        }
      ],
      "name": "addMilestone",
      "outputs": [],
      "payable": false,
      "stateMutability": "nonpayable",
      "type": "function"
    },
    {
      "constant": true,
      "inputs": [
        {
          "name": "index",
          "type": "uint256"
        }
      ],
      "name": "returnMilestone",
      "outputs": [
        {
          "name": "",
          "type": "string"
        },
        {
          "name": "",
          "type": "string"
        },
        {
          "name": "",
          "type": "uint256"
        },
        {
          "name": "",
          "type": "uint256"
        },
        {
          "name": "",
          "type": "uint256"
        },
        {
          "name": "",
          "type": "bool"
        }
      ],
      "payable": false,
      "stateMutability": "view",
      "type": "function"
    },
    {
      "constant": true,
      "inputs": [],
      "name": "getMilestonesCount",
      "outputs": [
        {
          "name": "",
          "type": "uint256"
        }
      ],
      "payable": false,
      "stateMutability": "view",
      "type": "function"
    },
    {
      "constant": false,
      "inputs": [],
      "name": "deployFund",
      "outputs": [],
      "payable": false,
      "stateMutability": "nonpayable",
      "type": "function"
    },
    {
      "constant": false,
      "inputs": [],
      "name": "makeDonation",
      "outputs": [],
      "payable": true,
      "stateMutability": "payable",
      "type": "function"
    },
    {
      "constant": false,
      "inputs": [],
      "name": "activateFund",
      "outputs": [],
      "payable": false,
      "stateMutability": "nonpayable",
      "type": "function"
    },
    {
      "constant": false,
      "inputs": [
        {
          "name": "vote",
          "type": "bool"
        }
      ],
      "name": "recordVote",
      "outputs": [],
      "payable": false,
      "stateMutability": "nonpayable",
      "type": "function"
    },
    {
      "constant": false,
      "inputs": [],
      "name": "nextMilestone",
      "outputs": [],
      "payable": true,
      "stateMutability": "payable",
      "type": "function"
    },
    {
      "constant": false,
      "inputs": [],
      "name": "claimFunds",
      "outputs": [],
      "payable": true,
      "stateMutability": "payable",
      "type": "function"
    }
  ],
  "bytecode": "0x60806040526000805460a060020a60ff021916815560085534801561002357600080fd5b506040516200203c3803806200203c8339810160408181528251602080850151838601516060808801516000805433600160a060020a031991821681178355600180546007859055740100000000000000000000000000000000000000009316821760a060020a60ff02191692909217909155808a529289018490526080890182905260a0868a01818152978b018051918b01919091528051909a9590950198939791967f6d97bf2aa7f9ca8260976ed901f67ccc3dbe83417128309591907399420c64e49693958b958b958b958b959294939085019260c08601928a0191908190849084905b8381101561012257818101518382015260200161010a565b50505050905090810190601f16801561014f5780820380516001836020036101000a031916815260200191505b50838103825286518152865160209182019188019080838360005b8381101561018257818101518382015260200161016a565b50505050905090810190601f1680156101af5780820380516001836020036101000a031916815260200191505b5097505050505050505060405180910390a150505050611e6780620001d56000396000f3006080604052600436106101735763ffffffff7c0100000000000000000000000000000000000000000000000000000000600035041662b37044811461017857806302fb0c5e1461019f57806307aca9c2146101c85780630b49351c146101df57806325c302e4146101f45780633f4ba83a1461020957806340ea0a941461021e5780634a79d50c1461022657806359ba0980146102b05780635c975abb146102c557806365f9775f146102da578063715018a6146102e25780637284e416146102f757806377e0a9301461030c5780638456cb591461032157806388c5a3f8146103365780638da5cb5b1461044c578063953b8fb81461047d578063a0f97cf014610492578063abcc38f4146104a7578063ac307773146104bc578063d020e803146104c4578063d64ee238146104d9578063e1c58468146104f3578063e89e4ed61461058a578063f2fde38b146105a2578063f42e6976146105c3578063fb690dcc1461061e578063fbeb46ff1461063f575b600080fd5b34801561018457600080fd5b5061018d610660565b60408051918252519081900360200190f35b3480156101ab57600080fd5b506101b4610666565b604080519115158252519081900360200190f35b3480156101d457600080fd5b506101dd610676565b005b3480156101eb57600080fd5b5061018d610842565b34801561020057600080fd5b5061018d610849565b34801561021557600080fd5b506101dd61084f565b6101dd6108c5565b34801561023257600080fd5b5061023b6109b5565b6040805160208082528351818301528351919283929083019185019080838360005b8381101561027557818101518382015260200161025d565b50505050905090810190601f1680156102a25780820380516001836020036101000a031916815260200191505b509250505060405180910390f35b3480156102bc57600080fd5b5061018d610a40565b3480156102d157600080fd5b506101b4610a46565b6101dd610a56565b3480156102ee57600080fd5b506101dd610d6d565b34801561030357600080fd5b5061023b610dd9565b34801561031857600080fd5b506101b4610e34565b34801561032d57600080fd5b506101dd610e44565b34801561034257600080fd5b5061034e600435610ebf565b60405180806020018060200187815260200186815260200185815260200184151515158152602001838103835289818151815260200191508051906020019080838360005b838110156103ab578181015183820152602001610393565b50505050905090810190601f1680156103d85780820380516001836020036101000a031916815260200191505b5083810382528851815288516020918201918a019080838360005b8381101561040b5781810151838201526020016103f3565b50505050905090810190601f1680156104385780820380516001836020036101000a031916815260200191505b509850505050505050505060405180910390f35b34801561045857600080fd5b506104616110c4565b60408051600160a060020a039092168252519081900360200190f35b34801561048957600080fd5b5061018d6110d3565b34801561049e57600080fd5b5061018d6110d9565b3480156104b357600080fd5b506101dd6110df565b6101dd611323565b3480156104d057600080fd5b506101b4611635565b3480156104e557600080fd5b506101dd6004351515611645565b3480156104ff57600080fd5b506040805160206004803580820135601f81018490048402850184019095528484526101dd94369492936024939284019190819084018382808284375050604080516020601f89358b018035918201839004830284018301909452808352979a9998810197919650918201945092508291508401838280828437509497506118549650505050505050565b34801561059657600080fd5b5061034e600435611a84565b3480156105ae57600080fd5b506101dd600160a060020a0360043516611bef565b3480156105cf57600080fd5b506105d8611c12565b60408051600160a060020a03909816885260208801969096528686019490945260608601929092526080850152151560a0840152151560c0830152519081900360e00190f35b34801561062a57600080fd5b506101b4600160a060020a0360043516611c79565b34801561064b57600080fd5b5061018d600160a060020a0360043516611c8e565b60075481565b60015460b060020a900460ff1681565b600054600160a060020a0316331461068d57600080fd5b60005460a060020a900460ff16156106a457600080fd5b60015460a860020a900460ff16156106bb57600080fd5b600b54600111156106cb57600080fd5b60015460a060020a900460ff1615156106e357600080fd5b6001805475ff000000000000000000000000000000000000000000191660a860020a1781556040805133808252606060208301818152600280546000199781161561010002979097019096168690049184018290527f505b9045b44d999d60e150933bebe17e3b2d0ce5fcb19d90a22ea34edda570dd95929492936003939092908301906080840190869080156107bb5780601f10610790576101008083540402835291602001916107bb565b820191906000526020600020905b81548152906001019060200180831161079e57829003601f168201915b505083810382528454600260001961010060018416150201909116048082526020909101908590801561082f5780601f106108045761010080835404028352916020019161082f565b820191906000526020600020905b81548152906001019060200180831161081257829003601f168201915b50509550505050505060405180910390a1565b600b545b90565b60065481565b600054600160a060020a0316331461086657600080fd5b60005460a060020a900460ff16151561087e57600080fd5b6000805474ff0000000000000000000000000000000000000000191681556040517f7805862f689e2f13df9f062ff482ad3ad112aca9e0847911ed832e158c525b339190a1565b600154600160a060020a03163314156108dd57600080fd5b60005460a060020a900460ff16156108f457600080fd5b336000908152600a602052604090205460ff161561091157600080fd5b60015460a860020a900460ff16151561092957600080fd5b6007805434908101909155600680546001908101909155336000818152600a60209081526040808320805460ff191686179055600982529182902085905592548151600160a060020a03919091168152928301919091528181019290925290517f509fb5d764cf5e98b9f02a3d86350f8085cedb516140098d2d6fc2eb6256ac249181900360600190a1565b6002805460408051602060018416156101000260001901909316849004601f81018490048402820184019092528181529291830182828015610a385780601f10610a0d57610100808354040283529160200191610a38565b820191906000526020600020905b815481529060010190602001808311610a1b57829003601f168201915b505050505081565b60055481565b60005460a060020a900460ff1681565b600154600090819060a860020a900460ff1615610a7257600080fd5b600054600160a060020a03163314610a8957600080fd5b610a91611d6a565b600b600854815481101515610aa257fe5b600091825260209182902060408051600793909302909101805460026001821615610100026000190190911604601f8101859004909402830160e090810190925260c0830184815292939092849290918491840182828015610b455780601f10610b1a57610100808354040283529160200191610b45565b820191906000526020600020905b815481529060010190602001808311610b2857829003601f168201915b50505050508152602001600182018054600181600116156101000203166002900480601f016020809104026020016040519081016040528092919081815260200182805460018160011615610100020316600290048015610be75780601f10610bbc57610100808354040283529160200191610be7565b820191906000526020600020905b815481529060010190602001808311610bca57829003601f168201915b50505091835250506002828101546020830152600383015460408301526004830154606083015260059092015460ff161515608090910152600654919250610c2f9190611ca0565b60808201511015610c3f57600080fd5b6060810151604082015111610c5357600080fd5b60005460a060020a900460ff1615610c6a57600080fd5b600b600854815481101515610c7b57fe5b600091825260209091206005600790920201015460ff169250821515610ca057600080fd5b60015460b060020a900460ff161515610cb857600080fd5b6000303111610cc657600080fd5b600754600b54610cd69190611ca0565b600154604051919350600160a060020a03169083156108fc029084906000818181858888f19350505050158015610d11573d6000803e3d6000fd5b5060088054600190810191829055805460408051600160a060020a039092168252602082019390935282519195507f54484603061911f00599f684098b06f93cd3d4359f303422c69e2a742d3cd40d92908290030190a1505050565b600054600160a060020a03163314610d8457600080fd5b60008054604051600160a060020a03909116917ff8df31144d9c2f0f6b59d69b8b98abd5459d07f2742c4df920b25aae33c6482091a26000805473ffffffffffffffffffffffffffffffffffffffff19169055565b6003805460408051602060026001851615610100026000190190941693909304601f81018490048402820184019092528181529291830182828015610a385780601f10610a0d57610100808354040283529160200191610a38565b60015460a860020a900460ff1681565b600054600160a060020a03163314610e5b57600080fd5b60005460a060020a900460ff1615610e7257600080fd5b6000805474ff0000000000000000000000000000000000000000191660a060020a1781556040517f6985a02210a168e66602d3235cb6db0e70f92b3ba4d376a33c0f3d9434bff6259190a1565b606080600080600080610ed0611d6a565b60005460a060020a900460ff1615610ee757600080fd5b60015460a060020a900460ff161515610eff57600080fd5b600b805489908110610f0d57fe5b600091825260209182902060408051600793909302909101805460026001821615610100026000190190911604601f8101859004909402830160e090810190925260c0830184815292939092849290918491840182828015610fb05780601f10610f8557610100808354040283529160200191610fb0565b820191906000526020600020905b815481529060010190602001808311610f9357829003601f168201915b50505050508152602001600182018054600181600116156101000203166002900480601f0160208091040260200160405190810160405280929190818152602001828054600181600116156101000203166002900480156110525780601f1061102757610100808354040283529160200191611052565b820191906000526020600020905b81548152906001019060200180831161103557829003601f168201915b505050918352505060028201546020808301919091526003830154604080840191909152600484015460608085019190915260059094015460ff16151560809384015284519185015190850151938501519285015160a090950151919d909c50929a5090985091965090945092505050565b600154600160a060020a031681565b60045481565b60085481565b60008054600160a060020a031633146110f757600080fd5b60005460a060020a900460ff161561110e57600080fd5b60015460b060020a900460ff161561112557600080fd5b60015460a860020a900460ff16151561113d57600080fd5b600454600754101561114e57600080fd5b600554600654101561115f57600080fd5b600754600b5461116f9190611ca0565b600154604051919250600160a060020a03169082156108fc029083906000818181858888f193505050501580156111aa573d6000803e3d6000fd5b506001805476ffff000000000000000000000000000000000000000000191660b060020a1780825560075460408051600160a060020a0390931680845260608401839052608060208501818152600280546000199881161561010002989098019097168790049186018290527f9ccdf7d0261aacc9af5c9a292960b52d6398156b6292d6ef1919de5843573c6296929592946003949093929083019060a08401908790801561129a5780601f1061126f5761010080835404028352916020019161129a565b820191906000526020600020905b81548152906001019060200180831161127d57829003601f168201915b505083810382528554600260001961010060018416150201909116048082526020909101908690801561130e5780601f106112e35761010080835404028352916020019161130e565b820191906000526020600020905b8154815290600101906020018083116112f157829003601f168201915b5050965050505050505060405180910390a150565b60015460009081908190600160a060020a031633141561134257600080fd5b61134a611d6a565b600b60085481548110151561135b57fe5b600091825260209182902060408051600793909302909101805460026001821615610100026000190190911604601f8101859004909402830160e090810190925260c08301848152929390928492909184918401828280156113fe5780601f106113d3576101008083540402835291602001916113fe565b820191906000526020600020905b8154815290600101906020018083116113e157829003601f168201915b50505050508152602001600182018054600181600116156101000203166002900480601f0160208091040260200160405190810160405280929190818152602001828054600181600116156101000203166002900480156114a05780601f10611475576101008083540402835291602001916114a0565b820191906000526020600020905b81548152906001019060200180831161148357829003601f168201915b50505091835250506002828101546020830152600383015460408301526004830154606083015260059092015460ff1615156080909101526006549192506114e89190611ca0565b608082015110156114f857600080fd5b606081015160408201511061150c57600080fd5b60005460a060020a900460ff161561152357600080fd5b336000908152600a602052604090205460ff16151561154157600080fd5b600030311161154f57600080fd5b33600090815260096020526040902054600754909450611570908590611ca0565b925061157d833031611cb7565b604051909250339083156108fc029084906000818181858888f193505050501580156115ad573d6000803e3d6000fd5b506000600b6008548154811015156115c157fe5b600091825260209182902060079190910201600501805460ff19169215159290921790915560015460408051600160a060020a039092168252339282019290925281517f2b6fd677124e244b62e821a2d08147e504e91b5ed22f0ab16370a8b1b0618b77929181900390910190a150505050565b60015460a060020a900460ff1681565b6001546000908190600160a060020a031633141561166257600080fd5b60005460a060020a900460ff161561167957600080fd5b60015460a860020a900460ff161561169057600080fd5b336000908152600a602052604090205460ff1615156116ae57600080fd5b600b6008548154811015156116bf57fe5b600091825260208083203384526006600790930201919091019052604090205460ff16156116ec57600080fd5b60015460b060020a900460ff16151561170457600080fd5b336000908152600960205260409020546007546117219190611ca0565b915061172e826064611cb7565b9050821561176857611762600b60085481548110151561174a57fe5b90600052602060002090600702016002015482611ce0565b50611796565b611794600b60085481548110151561177c57fe5b90600052602060002090600702016003015482611ce0565b505b600b6008548154811015156117a757fe5b6000918252602090912060046007909202010180546001908101909155600854600b805490919081106117d657fe5b6000918252602080832033808552600793909302016006018152604092839020805460ff1916941515949094179093556001548251600160a060020a0390911681529283015284151582820152517fbaf23d1fe654a1160a559d6ecc856b2bdebc788a4f909c49ea0c8948d132cfd9916060908290030190a1505050565b61185c611d6a565b600054600160a060020a0316331461187357600080fd5b60005460a060020a900460ff161561188a57600080fd5b60015460a060020a900460ff1615156118a257600080fd5b506040805160c08101825283815260208082018490526000928201839052606082018390526080820183905260a08201839052600b805460018101808355919094528251805193949193859360079093027f0175b7a638427703f0dbe7bb9bbf987a2551717b34e79f33b5b1008d1fa01db90192611924928492910190611da3565b50602082810151805161193d9260018501920190611da3565b5060408201518160020155606082015181600301556080820151816004015560a08201518160050160006101000a81548160ff0219169083151502179055505050507faa3394af2e59af9f550323dff5e3bb6955cc533473f446a1705b13a2710e6fbf8383604051808060200180602001838103835285818151815260200191508051906020019080838360005b838110156119e35781810151838201526020016119cb565b50505050905090810190601f168015611a105780820380516001836020036101000a031916815260200191505b50838103825284518152845160209182019186019080838360005b83811015611a43578181015183820152602001611a2b565b50505050905090810190601f168015611a705780820380516001836020036101000a031916815260200191505b5094505050505060405180910390a1505050565b600b805482908110611a9257fe5b60009182526020918290206007919091020180546040805160026001841615610100026000190190931692909204601f810185900485028301850190915280825291935091839190830182828015611b2b5780601f10611b0057610100808354040283529160200191611b2b565b820191906000526020600020905b815481529060010190602001808311611b0e57829003601f168201915b505050505090806001018054600181600116156101000203166002900480601f016020809104026020016040519081016040528092919081815260200182805460018160011615610100020316600290048015611bc95780601f10611b9e57610100808354040283529160200191611bc9565b820191906000526020600020905b815481529060010190602001808311611bac57829003601f168201915b505050506002830154600384015460048501546005909501549394919390925060ff1686565b600054600160a060020a03163314611c0657600080fd5b611c0f81611ced565b50565b6000806000806000806000600160149054906101000a900460ff161515611c3857600080fd5b5050600154600654600554600754600454600160a060020a0385169a9399509197509550935060ff60a860020a83048116935060b060020a90920490911690565b600a6020526000908152604090205460ff1681565b60096020526000908152604090205481565b60008183811515611cad57fe5b0490505b92915050565b6000821515611cc857506000611cb1565b50818102818382811515611cd857fe5b0414611cb157fe5b81810182811015611cb157fe5b600160a060020a0381161515611d0257600080fd5b60008054604051600160a060020a03808516939216917f8be0079c531659141344cd1fd0a4f28419497f9722a3daafe3b4186f6b6457e091a36000805473ffffffffffffffffffffffffffffffffffffffff1916600160a060020a0392909216919091179055565b60c06040519081016040528060608152602001606081526020016000815260200160008152602001600081526020016000151581525090565b828054600181600116156101000203166002900490600052602060002090601f016020900481019282601f10611de457805160ff1916838001178555611e11565b82800160010185558215611e11579182015b82811115611e11578251825591602001919060010190611df6565b50611e1d929150611e21565b5090565b61084691905b80821115611e1d5760008155600101611e275600a165627a7a7230582033b2b48656be36b32b54bbda0b27f54ba7e81ee330eaeb57e4b895579d75f3d80029",
  "source": "pragma solidity ^0.4.24;\n\nimport '../client/node_modules/openzeppelin-solidity/contracts/ownership/Ownable.sol';\nimport \"../client/node_modules/openzeppelin-solidity/contracts/lifecycle/Pausable.sol\";\nimport \"../client/node_modules/openzeppelin-solidity/contracts/math/SafeMath.sol\";\n\n/* the Funds contract keeps track of donors, donations, calculates the\n  weight of each vote, handles the fundraising period and the time period\n  in which funds are accepted.\n*/\ncontract Fund is Ownable, Pausable {\n\n\tstruct Milestones {\n\t\tstring name;\n\t\tstring description;\n\t\tuint passingVotes;\n\t\tuint failingVotes;\n\t\tuint totalVoted;\n\t\tbool acceptingVotes;\n\t\tmapping (address => bool) voted;\n\t}\n\n\taddress public owner;\n\tbool public fundInitialized;\n\tbool public acceptingDonations;\n\tbool public active;\n\tstring public title;\n\tstring public description;\n\tuint public targetAmount;\n\tuint public minNumberDonators;\n\tuint public totalDonors;\n\tuint public totalDonated;\n\tuint public currentMilestoneIndex = 0;\n\tmapping (address => uint) public amountDonated;\n\tmapping (address => bool) public donated;\n\tMilestones[] public milestones;\n\n\t//events\n\tevent FundCreated(address owner, string title, string description, uint targetAmount, uint minNumberDonators);\n\tevent MilestoneAdded(string name, string description);\n\tevent FundDeployed(address owner, string title, string description);\n\tevent DonationReceived(address fundAddress, address donorAddress, uint amount);\n\tevent FundActivated(address fundAddress, string title, string description, uint totalDonated);\n\tevent VoteRecorded(address fundAddress, address voter, bool approval);\n\tevent NextMilestone(address fundAddress, uint milestoneIndex);\n\tevent FundsClaimed(address fundAddress, address retreiver);\n\n\n\tconstructor(\n\t\tstring title,\n\t\tstring description,\n\t\tuint targetAmount,\n\t\tuint minNumberDonators\n\t\t) public {\n\t\towner = msg.sender;\n\t\ttitle = title;\n\t\tdescription = description;\n\t\ttargetAmount = targetAmount;\n\t\tminNumberDonators = minNumberDonators;\n\t\ttotalDonated = 0;\n\t\tfundInitialized = true;\n\t\temit FundCreated(msg.sender, title, description, targetAmount, minNumberDonators);\n\t}\n\n\tmodifier restrictOwner {\n\t\trequire(!(msg.sender == owner));\n\t\t_;\n\t}\n\n\tmodifier notAcceptingDonations {\n\t\trequire(!acceptingDonations);\n\t\t_;\n\t}\n\n\t/* A milestone is met if:\n\t\t1. More than 50% of donors vote\n\t\t2. The total weight of approval votes is greater than failing votes\n\t*/\n\tmodifier milestonePassed {\n\t\tMilestones memory currentMilestone = milestones[currentMilestoneIndex];\n\t\trequire(currentMilestone.totalVoted >= SafeMath.div(totalDonors, 2));\n\t\trequire(currentMilestone.passingVotes > currentMilestone.failingVotes);\n\t\t_;\n\t}\n\n\tmodifier milestoneFailed {\n\t\tMilestones memory currentMilestone = milestones[currentMilestoneIndex];\n\t\trequire(currentMilestone.totalVoted >= SafeMath.div(totalDonors, 2));\n\t\trequire(currentMilestone.passingVotes < currentMilestone.failingVotes);\n\t\t_;\n\t}\n\n\tfunction fundSummary()\n\t\tpublic\n\t\tview\n\t\treturns(address, uint, uint, uint, uint, bool, bool)\n\t{\n\t\trequire(fundInitialized);\n\n\t\treturn (owner, totalDonors, minNumberDonators, totalDonated,\n\t\ttargetAmount, acceptingDonations, active);\n\t}\n\n\tfunction addMilestone(string _name, string _description)\n\t\tonlyOwner\n\t\twhenNotPaused\n\t\tpublic\n\t{\n\t\trequire(fundInitialized);\n\n\t\tMilestones memory newMilestone = Milestones({\n\t\t\tname: _name,\n\t\t\tdescription: _description,\n\t\t\tpassingVotes: 0,\n\t\t\tfailingVotes: 0,\n\t\t\ttotalVoted: 0,\n\t\t\tacceptingVotes: false\n\t\t});\n\n\t\tmilestones.push(newMilestone);\n\t\temit MilestoneAdded(_name, _description);\n\t}\n\n\tfunction returnMilestone(uint index)\n\t\tpublic\n\t\tview\n\t\twhenNotPaused\n\t\treturns (string, string, uint, uint, uint, bool)\n\t{\n\t\trequire(fundInitialized);\n\n\t\tMilestones memory milestone = milestones[index];\n\t\treturn (milestone.name, milestone.description, milestone.passingVotes,\n\t\tmilestone.failingVotes, milestone.totalVoted, milestone.acceptingVotes);\n\t}\n\n\tfunction getMilestonesCount()\n\t\tpublic\n\t\tview\n\t\treturns (uint)\n\t{\n\t\treturn milestones.length;\n\t}\n\n\tfunction deployFund()\n\t\tonlyOwner\n\t\twhenNotPaused\n\t\tnotAcceptingDonations\n\t\tpublic\n\t{\n\t\trequire(milestones.length >= 1);\n\t\trequire(fundInitialized);\n\n\t\tacceptingDonations = true;\n\t\temit FundDeployed(msg.sender, title, description);\n\n\t}\n\n  function makeDonation()\n\t\trestrictOwner\n\t\tpayable\n\t\twhenNotPaused\n\t\tpublic\n\t{\n    require(!donated[msg.sender]);\n\t\trequire(acceptingDonations);\n\n    totalDonated += msg.value;\n\t\ttotalDonors++;\n    donated[msg.sender] = true;\n\t\tamountDonated[msg.sender] = msg.value;\n\t\temit DonationReceived(owner, msg.sender, msg.value);\n  }\n\n\tfunction activateFund()\n\t\tonlyOwner\n\t\twhenNotPaused\n\t\tpublic\n\t{\n\t\trequire(!active);\n\t\trequire(acceptingDonations);\n\t\trequire(totalDonated >= targetAmount);\n\t\trequire(totalDonors >= minNumberDonators);\n\n\t\tuint installment = SafeMath.div(totalDonated, milestones.length);\n    owner.transfer(installment);\n\t\tacceptingDonations = false;\n\t\tactive = true;\n\t\temit FundActivated(owner, title, description, totalDonated);\n\t}\n\n  function recordVote(bool vote)\n\t\trestrictOwner\n\t\twhenNotPaused\n\t\tnotAcceptingDonations\n\t\tpublic\n\t{\n    require(donated[msg.sender]);\n    require(!(milestones[currentMilestoneIndex].voted[msg.sender]));\n    require(active);\n\n\t\tuint donationProportion = SafeMath.div(amountDonated[msg.sender], totalDonated);\n\t\tuint voteWeight = SafeMath.mul(donationProportion, 100);\n\n\t\tif (vote) {\n\t\t\tSafeMath.add(milestones[currentMilestoneIndex].passingVotes, voteWeight);\n\t\t} else {\n\t\t\tSafeMath.add(milestones[currentMilestoneIndex].failingVotes, voteWeight);\n\t\t}\n\t\tmilestones[currentMilestoneIndex].totalVoted++;\n\t\tmilestones[currentMilestoneIndex].voted[msg.sender] = true;\n\t\temit VoteRecorded( owner, msg.sender, vote);\n  }\n\n\t/* funds are released to the owner if the donors of the fund vote that\n\tthe milestone is met. Once the milestone is met, the voting is open for\n\tthe next milestone.\n\t*/\n\n\tfunction nextMilestone()\n\t\tnotAcceptingDonations\n\t\tonlyOwner\n\t\tmilestonePassed\n\t\twhenNotPaused\n\t\tpayable\n\t\tpublic\n\t{\n\t\tbool acceptingVotes = milestones[currentMilestoneIndex].acceptingVotes;\n\t\trequire(acceptingVotes);\n\t\trequire(active);\n\t\trequire((address(this).balance) > 0);\n\n\t\tuint installment = SafeMath.div(totalDonated, milestones.length);\n\t\towner.transfer(installment);\n\t\tacceptingVotes = false;\n\t\tcurrentMilestoneIndex++;\n\t\tacceptingVotes = true;\n\t\temit NextMilestone( owner, currentMilestoneIndex);\n\t}\n\n\t/* If a milestone failed then donors can claim funds. Once the donors claim\n\tfunds, votes are no longer accepted for the milestone.\n\t*/\n\tfunction claimFunds()\n\t\trestrictOwner\n\t\tmilestoneFailed\n\t\tpayable\n\t\twhenNotPaused\n\t\tpublic\n\t{\n\t\trequire(donated[msg.sender]);\n\t\trequire((address(this).balance) > 0);\n\n\t\tuint donation = amountDonated[msg.sender];\n\t\tuint proportionDonated = SafeMath.div(donation, totalDonated);\n\t\tuint refund = SafeMath.mul(proportionDonated, address(this).balance);\n\t\tmsg.sender.transfer(refund);\n\t\tmilestones[currentMilestoneIndex].acceptingVotes = false;\n\t\temit FundsClaimed(owner, msg.sender);\n\n\t}\n\n}\n",
  "sourcePath": "/Users/nathanfeng/Documents/ethereum/eth-projects/charity-next/contracts/Fund.sol",
  "compiler": {
    "name": "solc",
    "version": "0.4.24+commit.e67f0147.Emscripten.clang"
  },
  "schemaVersion": "2.0.1",
  "updatedAt": "2018-08-19T20:27:02.869Z"
}