{
  "contractName": "Fund",
  "abi": [
    {
      "constant": true,
      "inputs": [],
      "name": "totalDonated",
      "outputs": [
        {
          "name": "",
          "type": "uint256"
        }
      ],
      "payable": false,
      "stateMutability": "view",
      "type": "function"
    },
    {
      "constant": true,
      "inputs": [],
      "name": "active",
      "outputs": [
        {
          "name": "",
          "type": "bool"
        }
      ],
      "payable": false,
      "stateMutability": "view",
      "type": "function"
    },
    {
      "constant": true,
      "inputs": [],
      "name": "totalDonors",
      "outputs": [
        {
          "name": "",
          "type": "uint256"
        }
      ],
      "payable": false,
      "stateMutability": "view",
      "type": "function"
    },
    {
      "constant": false,
      "inputs": [],
      "name": "unpause",
      "outputs": [],
      "payable": false,
      "stateMutability": "nonpayable",
      "type": "function"
    },
    {
      "constant": true,
      "inputs": [],
      "name": "title",
      "outputs": [
        {
          "name": "",
          "type": "string"
        }
      ],
      "payable": false,
      "stateMutability": "view",
      "type": "function"
    },
    {
      "constant": true,
      "inputs": [],
      "name": "minNumberDonators",
      "outputs": [
        {
          "name": "",
          "type": "uint256"
        }
      ],
      "payable": false,
      "stateMutability": "view",
      "type": "function"
    },
    {
      "constant": true,
      "inputs": [],
      "name": "paused",
      "outputs": [
        {
          "name": "",
          "type": "bool"
        }
      ],
      "payable": false,
      "stateMutability": "view",
      "type": "function"
    },
    {
      "constant": false,
      "inputs": [],
      "name": "renounceOwnership",
      "outputs": [],
      "payable": false,
      "stateMutability": "nonpayable",
      "type": "function"
    },
    {
      "constant": true,
      "inputs": [],
      "name": "description",
      "outputs": [
        {
          "name": "",
          "type": "string"
        }
      ],
      "payable": false,
      "stateMutability": "view",
      "type": "function"
    },
    {
      "constant": true,
      "inputs": [],
      "name": "acceptingDonations",
      "outputs": [
        {
          "name": "",
          "type": "bool"
        }
      ],
      "payable": false,
      "stateMutability": "view",
      "type": "function"
    },
    {
      "constant": false,
      "inputs": [],
      "name": "pause",
      "outputs": [],
      "payable": false,
      "stateMutability": "nonpayable",
      "type": "function"
    },
    {
      "constant": true,
      "inputs": [],
      "name": "owner",
      "outputs": [
        {
          "name": "",
          "type": "address"
        }
      ],
      "payable": false,
      "stateMutability": "view",
      "type": "function"
    },
    {
      "constant": true,
      "inputs": [],
      "name": "targetAmount",
      "outputs": [
        {
          "name": "",
          "type": "uint256"
        }
      ],
      "payable": false,
      "stateMutability": "view",
      "type": "function"
    },
    {
      "constant": true,
      "inputs": [],
      "name": "currentMilestoneIndex",
      "outputs": [
        {
          "name": "",
          "type": "uint256"
        }
      ],
      "payable": false,
      "stateMutability": "view",
      "type": "function"
    },
    {
      "constant": true,
      "inputs": [],
      "name": "fundInitialized",
      "outputs": [
        {
          "name": "",
          "type": "bool"
        }
      ],
      "payable": false,
      "stateMutability": "view",
      "type": "function"
    },
    {
      "constant": true,
      "inputs": [
        {
          "name": "",
          "type": "uint256"
        }
      ],
      "name": "milestones",
      "outputs": [
        {
          "name": "name",
          "type": "string"
        },
        {
          "name": "description",
          "type": "string"
        },
        {
          "name": "passingVotes",
          "type": "uint256"
        },
        {
          "name": "failingVotes",
          "type": "uint256"
        },
        {
          "name": "totalVoted",
          "type": "uint256"
        },
        {
          "name": "acceptingVotes",
          "type": "bool"
        }
      ],
      "payable": false,
      "stateMutability": "view",
      "type": "function"
    },
    {
      "constant": false,
      "inputs": [
        {
          "name": "_newOwner",
          "type": "address"
        }
      ],
      "name": "transferOwnership",
      "outputs": [],
      "payable": false,
      "stateMutability": "nonpayable",
      "type": "function"
    },
    {
      "constant": true,
      "inputs": [
        {
          "name": "",
          "type": "address"
        }
      ],
      "name": "donated",
      "outputs": [
        {
          "name": "",
          "type": "bool"
        }
      ],
      "payable": false,
      "stateMutability": "view",
      "type": "function"
    },
    {
      "constant": true,
      "inputs": [
        {
          "name": "",
          "type": "address"
        }
      ],
      "name": "amountDonated",
      "outputs": [
        {
          "name": "",
          "type": "uint256"
        }
      ],
      "payable": false,
      "stateMutability": "view",
      "type": "function"
    },
    {
      "inputs": [],
      "payable": false,
      "stateMutability": "nonpayable",
      "type": "constructor"
    },
    {
      "anonymous": false,
      "inputs": [
        {
          "indexed": false,
          "name": "owner",
          "type": "address"
        },
        {
          "indexed": false,
          "name": "title",
          "type": "string"
        },
        {
          "indexed": false,
          "name": "description",
          "type": "string"
        },
        {
          "indexed": false,
          "name": "targetAmount",
          "type": "uint256"
        },
        {
          "indexed": false,
          "name": "minNumberDonators",
          "type": "uint256"
        }
      ],
      "name": "FundInitialized",
      "type": "event"
    },
    {
      "anonymous": false,
      "inputs": [
        {
          "indexed": false,
          "name": "name",
          "type": "string"
        },
        {
          "indexed": false,
          "name": "description",
          "type": "string"
        }
      ],
      "name": "MilestoneAdded",
      "type": "event"
    },
    {
      "anonymous": false,
      "inputs": [
        {
          "indexed": false,
          "name": "owner",
          "type": "address"
        },
        {
          "indexed": false,
          "name": "title",
          "type": "string"
        },
        {
          "indexed": false,
          "name": "description",
          "type": "string"
        }
      ],
      "name": "FundDeployed",
      "type": "event"
    },
    {
      "anonymous": false,
      "inputs": [
        {
          "indexed": false,
          "name": "fundAddress",
          "type": "address"
        },
        {
          "indexed": false,
          "name": "donorAddress",
          "type": "address"
        },
        {
          "indexed": false,
          "name": "amount",
          "type": "uint256"
        }
      ],
      "name": "DonationReceived",
      "type": "event"
    },
    {
      "anonymous": false,
      "inputs": [
        {
          "indexed": false,
          "name": "fundAddress",
          "type": "address"
        },
        {
          "indexed": false,
          "name": "title",
          "type": "string"
        },
        {
          "indexed": false,
          "name": "description",
          "type": "string"
        },
        {
          "indexed": false,
          "name": "totalDonated",
          "type": "uint256"
        }
      ],
      "name": "FundActivated",
      "type": "event"
    },
    {
      "anonymous": false,
      "inputs": [
        {
          "indexed": false,
          "name": "fundAddress",
          "type": "address"
        },
        {
          "indexed": false,
          "name": "voter",
          "type": "address"
        },
        {
          "indexed": false,
          "name": "approval",
          "type": "bool"
        },
        {
          "indexed": false,
          "name": "donationAmount",
          "type": "uint256"
        },
        {
          "indexed": false,
          "name": "passingVotes",
          "type": "uint256"
        },
        {
          "indexed": false,
          "name": "failingVotes",
          "type": "uint256"
        }
      ],
      "name": "VoteRecorded",
      "type": "event"
    },
    {
      "anonymous": false,
      "inputs": [
        {
          "indexed": false,
          "name": "fundAddress",
          "type": "address"
        },
        {
          "indexed": false,
          "name": "milestoneIndex",
          "type": "uint256"
        }
      ],
      "name": "NextMilestone",
      "type": "event"
    },
    {
      "anonymous": false,
      "inputs": [
        {
          "indexed": false,
          "name": "fundAddress",
          "type": "address"
        },
        {
          "indexed": false,
          "name": "retreiver",
          "type": "address"
        },
        {
          "indexed": false,
          "name": "refund",
          "type": "uint256"
        },
        {
          "indexed": false,
          "name": "currentbalance",
          "type": "uint256"
        },
        {
          "indexed": false,
          "name": "proportionDonated",
          "type": "uint256"
        }
      ],
      "name": "FundsClaimed",
      "type": "event"
    },
    {
      "anonymous": false,
      "inputs": [],
      "name": "Pause",
      "type": "event"
    },
    {
      "anonymous": false,
      "inputs": [],
      "name": "Unpause",
      "type": "event"
    },
    {
      "anonymous": false,
      "inputs": [
        {
          "indexed": true,
          "name": "previousOwner",
          "type": "address"
        }
      ],
      "name": "OwnershipRenounced",
      "type": "event"
    },
    {
      "anonymous": false,
      "inputs": [
        {
          "indexed": true,
          "name": "previousOwner",
          "type": "address"
        },
        {
          "indexed": true,
          "name": "newOwner",
          "type": "address"
        }
      ],
      "name": "OwnershipTransferred",
      "type": "event"
    },
    {
      "constant": false,
      "inputs": [
        {
          "name": "name",
          "type": "string"
        },
        {
          "name": "descrip",
          "type": "string"
        },
        {
          "name": "target",
          "type": "uint256"
        },
        {
          "name": "minDonors",
          "type": "uint256"
        }
      ],
      "name": "initializeFund",
      "outputs": [],
      "payable": false,
      "stateMutability": "nonpayable",
      "type": "function"
    },
    {
      "constant": true,
      "inputs": [],
      "name": "fundSummary",
      "outputs": [
        {
          "name": "",
          "type": "address"
        },
        {
          "name": "",
          "type": "uint256"
        },
        {
          "name": "",
          "type": "uint256"
        },
        {
          "name": "",
          "type": "uint256"
        },
        {
          "name": "",
          "type": "uint256"
        },
        {
          "name": "",
          "type": "bool"
        },
        {
          "name": "",
          "type": "bool"
        }
      ],
      "payable": false,
      "stateMutability": "view",
      "type": "function"
    },
    {
      "constant": false,
      "inputs": [
        {
          "name": "_name",
          "type": "string"
        },
        {
          "name": "_description",
          "type": "string"
        }
      ],
      "name": "addMilestone",
      "outputs": [],
      "payable": false,
      "stateMutability": "nonpayable",
      "type": "function"
    },
    {
      "constant": true,
      "inputs": [
        {
          "name": "index",
          "type": "uint256"
        }
      ],
      "name": "returnMilestone",
      "outputs": [
        {
          "name": "",
          "type": "string"
        },
        {
          "name": "",
          "type": "string"
        },
        {
          "name": "",
          "type": "uint256"
        },
        {
          "name": "",
          "type": "uint256"
        },
        {
          "name": "",
          "type": "uint256"
        },
        {
          "name": "",
          "type": "bool"
        }
      ],
      "payable": false,
      "stateMutability": "view",
      "type": "function"
    },
    {
      "constant": true,
      "inputs": [],
      "name": "getMilestonesCount",
      "outputs": [
        {
          "name": "",
          "type": "uint256"
        }
      ],
      "payable": false,
      "stateMutability": "view",
      "type": "function"
    },
    {
      "constant": false,
      "inputs": [],
      "name": "deployFund",
      "outputs": [],
      "payable": false,
      "stateMutability": "nonpayable",
      "type": "function"
    },
    {
      "constant": false,
      "inputs": [],
      "name": "makeDonation",
      "outputs": [],
      "payable": true,
      "stateMutability": "payable",
      "type": "function"
    },
    {
      "constant": false,
      "inputs": [],
      "name": "activateFund",
      "outputs": [],
      "payable": false,
      "stateMutability": "nonpayable",
      "type": "function"
    },
    {
      "constant": false,
      "inputs": [
        {
          "name": "vote",
          "type": "bool"
        }
      ],
      "name": "recordVote",
      "outputs": [],
      "payable": false,
      "stateMutability": "nonpayable",
      "type": "function"
    },
    {
      "constant": false,
      "inputs": [],
      "name": "nextMilestone",
      "outputs": [],
      "payable": true,
      "stateMutability": "payable",
      "type": "function"
    },
    {
      "constant": false,
      "inputs": [],
      "name": "claimFunds",
      "outputs": [],
      "payable": true,
      "stateMutability": "payable",
      "type": "function"
    }
  ],
  "bytecode": "0x60806040526000805460a060020a60ff021916905534801561002057600080fd5b5060008054600160a060020a031990811633908117835560018054909216179055600781905560068190556008556122958061005d6000396000f30060806040526004361061017e5763ffffffff7c0100000000000000000000000000000000000000000000000000000000600035041662b37044811461018357806302fb0c5e146101aa57806307aca9c2146101d35780630b49351c146101ea57806325c302e4146101ff5780633f4ba83a1461021457806340ea0a94146102295780634a79d50c1461023157806359ba0980146102bb5780635c975abb146102d057806365f9775f146102e5578063715018a6146102ed5780637284e4161461030257806377e0a930146103175780637ee5fe271461032c5780638456cb59146103cc57806388c5a3f8146103e15780638da5cb5b146104f7578063953b8fb814610528578063a0f97cf01461053d578063abcc38f414610552578063ac30777314610567578063d020e8031461056f578063d64ee23814610584578063e1c584681461059e578063e89e4ed614610635578063f2fde38b1461064d578063f42e69761461066e578063fb690dcc146106c9578063fbeb46ff146106ea575b600080fd5b34801561018f57600080fd5b5061019861070b565b60408051918252519081900360200190f35b3480156101b657600080fd5b506101bf610711565b604080519115158252519081900360200190f35b3480156101df57600080fd5b506101e8610721565b005b3480156101f657600080fd5b506101986108ed565b34801561020b57600080fd5b506101986108f4565b34801561022057600080fd5b506101e86108fa565b6101e8610970565b34801561023d57600080fd5b50610246610a66565b6040805160208082528351818301528351919283929083019185019080838360005b83811015610280578181015183820152602001610268565b50505050905090810190601f1680156102ad5780820380516001836020036101000a031916815260200191505b509250505060405180910390f35b3480156102c757600080fd5b50610198610af1565b3480156102dc57600080fd5b506101bf610af7565b6101e8610b07565b3480156102f957600080fd5b506101e8610e96565b34801561030e57600080fd5b50610246610f02565b34801561032357600080fd5b506101bf610f5d565b34801561033857600080fd5b506040805160206004803580820135601f81018490048402850184019095528484526101e894369492936024939284019190819084018382808284375050604080516020601f89358b018035918201839004830284018301909452808352979a999881019791965091820194509250829150840183828082843750949750508435955050506020909201359150610f6d9050565b3480156103d857600080fd5b506101e8611155565b3480156103ed57600080fd5b506103f96004356111d0565b60405180806020018060200187815260200186815260200185815260200184151515158152602001838103835289818151815260200191508051906020019080838360005b8381101561045657818101518382015260200161043e565b50505050905090810190601f1680156104835780820380516001836020036101000a031916815260200191505b5083810382528851815288516020918201918a019080838360005b838110156104b657818101518382015260200161049e565b50505050905090810190601f1680156104e35780820380516001836020036101000a031916815260200191505b509850505050505050505060405180910390f35b34801561050357600080fd5b5061050c6113d5565b60408051600160a060020a039092168252519081900360200190f35b34801561053457600080fd5b506101986113e4565b34801561054957600080fd5b506101986113ea565b34801561055e57600080fd5b506101e86113f0565b6101e8611674565b34801561057b57600080fd5b506101bf6119b0565b34801561059057600080fd5b506101e860043515156119c0565b3480156105aa57600080fd5b506040805160206004803580820135601f81018490048402850184019095528484526101e894369492936024939284019190819084018382808284375050604080516020601f89358b018035918201839004830284018301909452808352979a999881019791965091820194509250829150840183828082843750949750611c509650505050505050565b34801561064157600080fd5b506103f9600435611eae565b34801561065957600080fd5b506101e8600160a060020a0360043516612019565b34801561067a57600080fd5b5061068361203c565b60408051600160a060020a03909816885260208801969096528686019490945260608601929092526080850152151560a0840152151560c0830152519081900360e00190f35b3480156106d557600080fd5b506101bf600160a060020a03600435166120a3565b3480156106f657600080fd5b50610198600160a060020a03600435166120b8565b60075481565b60015460b060020a900460ff1681565b600054600160a060020a0316331461073857600080fd5b60005460a060020a900460ff161561074f57600080fd5b60015460a860020a900460ff161561076657600080fd5b600b546001111561077657600080fd5b60015460a060020a900460ff16151561078e57600080fd5b6001805475ff000000000000000000000000000000000000000000191660a860020a1781556040805133808252606060208301818152600280546000199781161561010002979097019096168690049184018290527f505b9045b44d999d60e150933bebe17e3b2d0ce5fcb19d90a22ea34edda570dd95929492936003939092908301906080840190869080156108665780601f1061083b57610100808354040283529160200191610866565b820191906000526020600020905b81548152906001019060200180831161084957829003601f168201915b50508381038252845460026000196101006001841615020190911604808252602090910190859080156108da5780601f106108af576101008083540402835291602001916108da565b820191906000526020600020905b8154815290600101906020018083116108bd57829003601f168201915b50509550505050505060405180910390a1565b600b545b90565b60065481565b600054600160a060020a0316331461091157600080fd5b60005460a060020a900460ff16151561092957600080fd5b6000805474ff0000000000000000000000000000000000000000191681556040517f7805862f689e2f13df9f062ff482ad3ad112aca9e0847911ed832e158c525b339190a1565b600154600160a060020a031633141561098857600080fd5b60005460a060020a900460ff161561099f57600080fd5b336000908152600a602052604090205460ff16156109bc57600080fd5b60015460a860020a900460ff1615156109d457600080fd5b6109e0600754346120ca565b600755600680546001908101909155336000818152600a60209081526040808320805460ff1916861790556009825291829020349081905593548251600160a060020a03919091168152908101929092528181019290925290517f509fb5d764cf5e98b9f02a3d86350f8085cedb516140098d2d6fc2eb6256ac249181900360600190a1565b6002805460408051602060018416156101000260001901909316849004601f81018490048402820184019092528181529291830182828015610ae95780601f10610abe57610100808354040283529160200191610ae9565b820191906000526020600020905b815481529060010190602001808311610acc57829003601f168201915b505050505081565b60055481565b60005460a060020a900460ff1681565b6001546000908190819060a860020a900460ff1615610b2557600080fd5b600054600160a060020a03163314610b3c57600080fd5b610b44612198565b600b600854815481101515610b5557fe5b600091825260209182902060408051600793909302909101805460026001821615610100026000190190911604601f8101859004909402830160e090810190925260c0830184815292939092849290918491840182828015610bf85780601f10610bcd57610100808354040283529160200191610bf8565b820191906000526020600020905b815481529060010190602001808311610bdb57829003601f168201915b50505050508152602001600182018054600181600116156101000203166002900480601f016020809104026020016040519081016040528092919081815260200182805460018160011615610100020316600290048015610c9a5780601f10610c6f57610100808354040283529160200191610c9a565b820191906000526020600020905b815481529060010190602001808311610c7d57829003601f168201915b50505091835250506002828101546020830152600383015460408301526004830154606083015260059092015460ff161515608090910152600654919250610ce291906120dd565b60808201511015610cf257600080fd5b6060810151604082015111610d0657600080fd5b60005460a060020a900460ff1615610d1d57600080fd5b600b600854815481101515610d2e57fe5b600091825260209091206005600790920201015460ff169350831515610d5357600080fd5b60015460b060020a900460ff161515610d6b57600080fd5b6000303111610d7957600080fd5b600b54610d879060016120ca565b9250610d95600754846120dd565b600154604051919350600160a060020a03169083156108fc029084906000818181858888f19350505050158015610dd0573d6000803e3d6000fd5b506000600b600854815481101515610de457fe5b60009182526020909120600790910201600501805460ff191691151591909117905560088054600190810191829055600b8054919290918110610e2357fe5b600091825260209182902060079190910201600501805460ff19169215159290921790915560015460085460408051600160a060020a0390931683529282015281517f54484603061911f00599f684098b06f93cd3d4359f303422c69e2a742d3cd40d929181900390910190a150505050565b600054600160a060020a03163314610ead57600080fd5b60008054604051600160a060020a03909116917ff8df31144d9c2f0f6b59d69b8b98abd5459d07f2742c4df920b25aae33c6482091a26000805473ffffffffffffffffffffffffffffffffffffffff19169055565b6003805460408051602060026001851615610100026000190190941693909304601f81018490048402820184019092528181529291830182828015610ae95780601f10610abe57610100808354040283529160200191610ae9565b60015460a860020a900460ff1681565b600054600160a060020a03163314610f8457600080fd5b60005460a060020a900460ff1615610f9b57600080fd5b60015460a060020a900460ff1615610fb257600080fd5b8351610fc59060029060208701906121d1565b508251610fd99060039060208601906121d1565b50600482905560058190556001805474ff0000000000000000000000000000000000000000191660a060020a1781556040805133808252606082018690526080820185905260a060208301818152600280549687161561010002600019019096168690049184018290527f09a7abc75945a696681435f19493996f1c7cc733b8b2fdfb894ba49364d2756e9592949293600393899389939183019060c0840190889080156110c85780601f1061109d576101008083540402835291602001916110c8565b820191906000526020600020905b8154815290600101906020018083116110ab57829003601f168201915b505083810382528654600260001961010060018416150201909116048082526020909101908790801561113c5780601f106111115761010080835404028352916020019161113c565b820191906000526020600020905b81548152906001019060200180831161111f57829003601f168201915b505097505050505050505060405180910390a150505050565b600054600160a060020a0316331461116c57600080fd5b60005460a060020a900460ff161561118357600080fd5b6000805474ff0000000000000000000000000000000000000000191660a060020a1781556040517f6985a02210a168e66602d3235cb6db0e70f92b3ba4d376a33c0f3d9434bff6259190a1565b6060806000806000806111e1612198565b60005460a060020a900460ff16156111f857600080fd5b60015460a060020a900460ff16151561121057600080fd5b600b80548990811061121e57fe5b600091825260209182902060408051600793909302909101805460026001821615610100026000190190911604601f8101859004909402830160e090810190925260c08301848152929390928492909184918401828280156112c15780601f10611296576101008083540402835291602001916112c1565b820191906000526020600020905b8154815290600101906020018083116112a457829003601f168201915b50505050508152602001600182018054600181600116156101000203166002900480601f0160208091040260200160405190810160405280929190818152602001828054600181600116156101000203166002900480156113635780601f1061133857610100808354040283529160200191611363565b820191906000526020600020905b81548152906001019060200180831161134657829003601f168201915b505050918352505060028201546020808301919091526003830154604080840191909152600484015460608085019190915260059094015460ff16151560809384015284519185015190850151938501519285015160a090950151919d909c50929a5090985091965090945092505050565b600154600160a060020a031681565b60045481565b60085481565b600080548190600160a060020a0316331461140a57600080fd5b60005460a060020a900460ff161561142157600080fd5b60015460b060020a900460ff161561143857600080fd5b60015460a860020a900460ff16151561145057600080fd5b600454600754101561146157600080fd5b600554600654101561147257600080fd5b600b546114809060016120ca565b915061148e600754836120dd565b600154604051919250600160a060020a03169082156108fc029083906000818181858888f193505050501580156114c9573d6000803e3d6000fd5b506001600b6008548154811015156114dd57fe5b60009182526020918290206005600792830290910101805493151560ff19909416939093179092556001805476ffff000000000000000000000000000000000000000000191660b060020a17808255925460408051600160a060020a03909516808652606086018390526080948601858152600280549586161561010002600019019095168590049587018690527f9ccdf7d0261aacc9af5c9a292960b52d6398156b6292d6ef1919de5843573c629691956003949383019060a0840190879080156115ea5780601f106115bf576101008083540402835291602001916115ea565b820191906000526020600020905b8154815290600101906020018083116115cd57829003601f168201915b505083810382528554600260001961010060018416150201909116048082526020909101908690801561165e5780601f106116335761010080835404028352916020019161165e565b820191906000526020600020905b81548152906001019060200180831161164157829003601f168201915b5050965050505050505060405180910390a15050565b60015460009081908190600160a060020a031633141561169357600080fd5b61169b612198565b600b6008548154811015156116ac57fe5b600091825260209182902060408051600793909302909101805460026001821615610100026000190190911604601f8101859004909402830160e090810190925260c083018481529293909284929091849184018282801561174f5780601f106117245761010080835404028352916020019161174f565b820191906000526020600020905b81548152906001019060200180831161173257829003601f168201915b50505050508152602001600182018054600181600116156101000203166002900480601f0160208091040260200160405190810160405280929190818152602001828054600181600116156101000203166002900480156117f15780601f106117c6576101008083540402835291602001916117f1565b820191906000526020600020905b8154815290600101906020018083116117d457829003601f168201915b50505091835250506002828101546020830152600383015460408301526004830154606083015260059092015460ff16151560809091015260065491925061183991906120dd565b6080820151101561184957600080fd5b606081015160408201511061185d57600080fd5b60005460a060020a900460ff161561187457600080fd5b336000908152600a602052604090205460ff16151561189257600080fd5b60003031116118a057600080fd5b336000908152600960205260409020546118bc906103e86120f2565b93506118ca846007546120dd565b60015460075460408051600160a060020a039093168352336020840152828101889052606083019190915260808201839052519194507fc7616df128bd6cb104237eba0659d52dd06074de4a0e80b3303ddf29096babe4919081900360a00190a16119368330316120f2565b9150611944826103e86120dd565b604051909250339083156108fc029084906000818181858888f19350505050158015611974573d6000803e3d6000fd5b506000600b60085481548110151561198857fe5b60009182526020909120600790910201600501805460ff191691151591909117905550505050565b60015460a060020a900460ff1681565b60015460009081908190600160a060020a03163314156119df57600080fd5b60005460a060020a900460ff16156119f657600080fd5b60015460a860020a900460ff1615611a0d57600080fd5b336000908152600a602052604090205460ff161515611a2b57600080fd5b600b600854815481101515611a3c57fe5b600091825260208083203384526006600790930201919091019052604090205460ff1615611a6957600080fd5b600b600854815481101515611a7a57fe5b600091825260209091206005600790920201015460ff161515611a9c57600080fd5b60015460b060020a900460ff161515611ab457600080fd5b33600090815260096020526040902054600854600b8054929550918110611ad757fe5b9060005260206000209060070201600201549150600b600854815481101515611afc57fe5b90600052602060002090600702016003015490508315611b4b57611b2082846120ca565b600b600854815481101515611b3157fe5b906000526020600020906007020160020181905550611b7c565b611b5581846120ca565b600b600854815481101515611b6657fe5b9060005260206000209060070201600301819055505b600b600854815481101515611b8d57fe5b6000918252602090912060046007909202010180546001908101909155600854600b80549091908110611bbc57fe5b6000918252602080832033808552600793909302016006018152604092839020805460ff1916941515949094179093556001548251600160a060020a0390911681529283015285151582820152606082018590526080820184905260a08201839052517f065f549e4b4fbfd5eda47d409cfa7fb85438e4f230dc405bace9b5cd0d2e04a99160c0908290030190a150505050565b611c58612198565b600054600160a060020a03163314611c6f57600080fd5b60005460a060020a900460ff1615611c8657600080fd5b60015460a860020a900460ff1615611c9d57600080fd5b60015460a060020a900460ff161515611cb557600080fd5b60015460b060020a900460ff1615611ccc57600080fd5b506040805160c08101825283815260208082018490526000928201839052606082018390526080820183905260a08201839052600b805460018101808355919094528251805193949193859360079093027f0175b7a638427703f0dbe7bb9bbf987a2551717b34e79f33b5b1008d1fa01db90192611d4e9284929101906121d1565b506020828101518051611d6792600185019201906121d1565b5060408201518160020155606082015181600301556080820151816004015560a08201518160050160006101000a81548160ff0219169083151502179055505050507faa3394af2e59af9f550323dff5e3bb6955cc533473f446a1705b13a2710e6fbf8383604051808060200180602001838103835285818151815260200191508051906020019080838360005b83811015611e0d578181015183820152602001611df5565b50505050905090810190601f168015611e3a5780820380516001836020036101000a031916815260200191505b50838103825284518152845160209182019186019080838360005b83811015611e6d578181015183820152602001611e55565b50505050905090810190601f168015611e9a5780820380516001836020036101000a031916815260200191505b5094505050505060405180910390a1505050565b600b805482908110611ebc57fe5b60009182526020918290206007919091020180546040805160026001841615610100026000190190931692909204601f810185900485028301850190915280825291935091839190830182828015611f555780601f10611f2a57610100808354040283529160200191611f55565b820191906000526020600020905b815481529060010190602001808311611f3857829003601f168201915b505050505090806001018054600181600116156101000203166002900480601f016020809104026020016040519081016040528092919081815260200182805460018160011615610100020316600290048015611ff35780601f10611fc857610100808354040283529160200191611ff3565b820191906000526020600020905b815481529060010190602001808311611fd657829003601f168201915b505050506002830154600384015460048501546005909501549394919390925060ff1686565b600054600160a060020a0316331461203057600080fd5b6120398161211b565b50565b6000806000806000806000600160149054906101000a900460ff16151561206257600080fd5b5050600154600654600554600754600454600160a060020a0385169a9399509197509550935060ff60a860020a83048116935060b060020a90920490911690565b600a6020526000908152604090205460ff1681565b60096020526000908152604090205481565b818101828110156120d757fe5b92915050565b600081838115156120ea57fe5b049392505050565b6000821515612103575060006120d7565b5081810281838281151561211357fe5b04146120d757fe5b600160a060020a038116151561213057600080fd5b60008054604051600160a060020a03808516939216917f8be0079c531659141344cd1fd0a4f28419497f9722a3daafe3b4186f6b6457e091a36000805473ffffffffffffffffffffffffffffffffffffffff1916600160a060020a0392909216919091179055565b60c06040519081016040528060608152602001606081526020016000815260200160008152602001600081526020016000151581525090565b828054600181600116156101000203166002900490600052602060002090601f016020900481019282601f1061221257805160ff191683800117855561223f565b8280016001018555821561223f579182015b8281111561223f578251825591602001919060010190612224565b5061224b92915061224f565b5090565b6108f191905b8082111561224b57600081556001016122555600a165627a7a7230582047ff54695babe01d26500c760b3172ba4148dce105d909e1929d595116d0c59a0029",
  "source": "pragma solidity ^0.4.24;\n\nimport '../client/node_modules/openzeppelin-solidity/contracts/ownership/Ownable.sol';\nimport \"../client/node_modules/openzeppelin-solidity/contracts/lifecycle/Pausable.sol\";\nimport \"../client/node_modules/openzeppelin-solidity/contracts/math/SafeMath.sol\";\n\n/* the Funds contract keeps track of donors, donations, calculates the\n  weight of each vote, handles the fundraising period and the time period\n  in which funds are accepted.\n*/\n\n\ncontract Fund is Ownable, Pausable {\n\n\tstruct Milestones {\n\t\tstring name;\n\t\tstring description;\n\t\tuint passingVotes;\n\t\tuint failingVotes;\n\t\tuint totalVoted;\n\t\tbool acceptingVotes;\n\t\tmapping (address => bool) voted;\n\t}\n\n\taddress public owner;\n\tbool public fundInitialized;\n\tbool public acceptingDonations;\n\tbool public active;\n\tstring public title;\n\tstring public description;\n\tuint public targetAmount;\n\tuint public minNumberDonators;\n\tuint public totalDonors;\n\tuint public totalDonated;\n\tuint public currentMilestoneIndex;\n\tmapping (address => uint) public amountDonated;\n\tmapping (address => bool) public donated;\n\tMilestones[] public milestones;\n\n\t//events\n\tevent FundInitialized(address owner, string title, string description, uint targetAmount, uint minNumberDonators);\n\tevent MilestoneAdded(string name, string description);\n\tevent FundDeployed(address owner, string title, string description);\n\tevent DonationReceived(address fundAddress, address donorAddress, uint amount);\n\tevent FundActivated(address fundAddress, string title, string description, uint totalDonated);\n\tevent VoteRecorded(address fundAddress, address voter, bool approval, uint donationAmount, uint passingVotes, uint failingVotes);\n\tevent NextMilestone(address fundAddress, uint milestoneIndex);\n\tevent FundsClaimed(address fundAddress, address retreiver, uint refund, uint currentbalance, uint proportionDonated);\n\n\tconstructor() public {\n\t    owner = msg.sender;\n\t\ttotalDonated = 0;\n\t\ttotalDonors = 0;\n\t\tcurrentMilestoneIndex = 0;\n\t}\n\n\tmodifier restrictOwner {\n\t\trequire(!(msg.sender == owner));\n\t\t_;\n\t}\n\n\tmodifier notAcceptingDonations {\n\t\trequire(!acceptingDonations);\n\t\t_;\n\t}\n\n\t/* A milestone is met if:\n\t\t1. More than 50% of donors vote\n\t\t2. The total weight of approval votes is greater than weight of failing votes\n\t*/\n\tmodifier milestonePassed {\n\t\tMilestones memory currentMilestone = milestones[currentMilestoneIndex];\n\t\trequire(currentMilestone.totalVoted >= SafeMath.div(totalDonors, 2));\n\t\trequire(currentMilestone.passingVotes > currentMilestone.failingVotes);\n\t\t_;\n\t}\n\n\tmodifier milestoneFailed {\n\t\tMilestones memory currentMilestone = milestones[currentMilestoneIndex];\n\t\trequire(currentMilestone.totalVoted >= SafeMath.div(totalDonors, 2));\n\t\trequire(currentMilestone.passingVotes < currentMilestone.failingVotes);\n\t\t_;\n\t}\n\n\tfunction initializeFund(\n\t\tstring name,\n\t\tstring descrip,\n\t\tuint target,\n\t\tuint minDonors\n\t\t)\n\t\tpublic\n\t\tonlyOwner\n\t\twhenNotPaused\n\t\t{\n\t\trequire(!fundInitialized);\n\t\ttitle = name;\n\t\tdescription = descrip;\n\t\ttargetAmount = target;\n\t\tminNumberDonators = minDonors;\n\t\tfundInitialized = true;\n\t\temit FundInitialized(msg.sender, title, description, targetAmount, minNumberDonators);\n\t}\n\n\tfunction fundSummary()\n\t\tpublic\n\t\tview\n\t\treturns(address, uint, uint, uint, uint, bool, bool)\n\t{\n\t\trequire(fundInitialized);\n\n\t\treturn (owner, totalDonors, minNumberDonators, totalDonated,\n\t\ttargetAmount, acceptingDonations, active);\n\t}\n\n\tfunction addMilestone(string _name, string _description)\n\t\tonlyOwner\n\t\twhenNotPaused\n\t\tnotAcceptingDonations\n\t\tpublic\n\t{\n\t\trequire(fundInitialized);\n\t\trequire(!active);\n\n\t\tMilestones memory newMilestone = Milestones({\n\t\t\tname: _name,\n\t\t\tdescription: _description,\n\t\t\tpassingVotes: 0,\n\t\t\tfailingVotes: 0,\n\t\t\ttotalVoted: 0,\n\t\t\tacceptingVotes: false\n\t\t});\n\n\t\tmilestones.push(newMilestone);\n\t\temit MilestoneAdded(_name, _description);\n\t}\n\n\tfunction returnMilestone(uint index)\n\t\tpublic\n\t\tview\n\t\twhenNotPaused\n\t\treturns (string, string, uint, uint, uint, bool)\n\t{\n\t\trequire(fundInitialized);\n\n\t\tMilestones memory milestone = milestones[index];\n\t\treturn (milestone.name, milestone.description, milestone.passingVotes,\n\t\tmilestone.failingVotes, milestone.totalVoted, milestone.acceptingVotes);\n\t}\n\n\tfunction getMilestonesCount()\n\t\tpublic\n\t\tview\n\t\treturns (uint)\n\t{\n\t\treturn milestones.length;\n\t}\n\n\tfunction deployFund()\n\t\tonlyOwner\n\t\twhenNotPaused\n\t\tnotAcceptingDonations\n\t\tpublic\n\t{\n\t\trequire(milestones.length >= 1);\n\t\trequire(fundInitialized);\n\n\t\tacceptingDonations = true;\n\t\temit FundDeployed(msg.sender, title, description);\n\n\t}\n\n  function makeDonation()\n\t\trestrictOwner\n\t\tpayable\n\t\twhenNotPaused\n\t\tpublic\n\t{\n    require(!donated[msg.sender]);\n\t\trequire(acceptingDonations);\n\n    totalDonated = SafeMath.add(totalDonated, msg.value);\n\t\ttotalDonors++;\n    donated[msg.sender] = true;\n\t\tamountDonated[msg.sender] = msg.value;\n\t\temit DonationReceived(owner, msg.sender, msg.value);\n  }\n\n\tfunction activateFund()\n\t\tonlyOwner\n\t\twhenNotPaused\n\t\tpublic\n\t{\n\t\trequire(!active);\n\t\trequire(acceptingDonations);\n\t\trequire(totalDonated >= targetAmount);\n\t\trequire(totalDonors >= minNumberDonators);\n\t\tuint split = SafeMath.add(milestones.length, 1);\n\n\t\tuint installment = SafeMath.div(totalDonated, split);\n    owner.transfer(installment);\n    milestones[currentMilestoneIndex].acceptingVotes = true;\n\t\tacceptingDonations = false;\n\t\tactive = true;\n\t\temit FundActivated(owner, title, description, totalDonated);\n\t}\n\n  function recordVote(bool vote)\n\t\trestrictOwner\n\t\twhenNotPaused\n\t\tnotAcceptingDonations\n\t\tpublic\n\t{\n    require(donated[msg.sender]);\n    require(!(milestones[currentMilestoneIndex].voted[msg.sender]));\n    require(milestones[currentMilestoneIndex].acceptingVotes);\n    require(active);\n\n\t\tuint donationAmount = amountDonated[msg.sender];\n\t\tuint passingVotes = milestones[currentMilestoneIndex].passingVotes;\n\t\tuint failingVotes = milestones[currentMilestoneIndex].failingVotes;\n\n\t\tif (vote) {\n\t\t\tmilestones[currentMilestoneIndex].passingVotes = SafeMath.add(passingVotes, donationAmount);\n\n\t\t} else {\n\t\t\tmilestones[currentMilestoneIndex].failingVotes = SafeMath.add(failingVotes, donationAmount);\n\t\t}\n\t\tmilestones[currentMilestoneIndex].totalVoted++;\n\t\tmilestones[currentMilestoneIndex].voted[msg.sender] = true;\n\t\temit VoteRecorded( owner, msg.sender, vote, donationAmount, passingVotes, failingVotes);\n  }\n\n\t/* funds are released to the owner if the donors of the fund vote that\n\tthe milestone is met. Once the milestone is met, the voting is open for\n\tthe next milestone.\n\t*/\n\n\tfunction nextMilestone()\n\t\tnotAcceptingDonations\n\t\tonlyOwner\n\t\tmilestonePassed\n\t\twhenNotPaused\n\t\tpayable\n\t\tpublic\n\t{\n\t\tbool acceptingVotes = milestones[currentMilestoneIndex].acceptingVotes;\n\t\trequire(acceptingVotes);\n\t\trequire(active);\n\t\trequire((address(this).balance) > 0);\n\t\tuint split = SafeMath.add(milestones.length, 1);\n\t\tuint installment = SafeMath.div(totalDonated, split);\n\t\towner.transfer(installment);\n\t\tmilestones[currentMilestoneIndex].acceptingVotes = false;\n\t\tcurrentMilestoneIndex++;\n\t\tmilestones[currentMilestoneIndex].acceptingVotes = true;\n\t\temit NextMilestone( owner, currentMilestoneIndex);\n\t}\n\n\t/* If a milestone failed then donors can claim funds. Once the donors claim\n\tfunds, votes are no longer accepted for the milestone.\n\t*/\n\tfunction claimFunds()\n\t\trestrictOwner\n\t\tmilestoneFailed\n\t\tpayable\n\t\twhenNotPaused\n\t\tpublic\n\t{\n\t\trequire(donated[msg.sender]);\n\t\trequire((address(this).balance) > 0);\n    /*since solidity doesn't account for decimals, we are getting multiplying\n    by 1000 to get the result up to 3 decimal places.\n    */\n\t\tuint adjustedDonation = SafeMath.mul(amountDonated[msg.sender], 1000);\n\t\tuint proportionDonated = SafeMath.div(adjustedDonation, totalDonated);\n\t\temit FundsClaimed(owner, msg.sender, adjustedDonation, totalDonated, proportionDonated);\n\t\tuint refund = SafeMath.mul(proportionDonated, address(this).balance);\n\t\t//adjusting the refund\n\t\trefund = SafeMath.div(refund, 1000);\n\t\tmsg.sender.transfer(refund);\n\t\tmilestones[currentMilestoneIndex].acceptingVotes = false;\n\n\t}\n\n}\n",
  "sourcePath": "/Users/nathanfeng/Projects/portfolio/decentralized-charity-platform/contracts/Fund.sol",
  "compiler": {
    "name": "solc",
    "version": "0.4.24+commit.e67f0147.Emscripten.clang"
  },
  "schemaVersion": "2.0.1",
  "updatedAt": "2018-08-25T02:34:02.817Z"
}